:400000000080002011000000610100006101000080B500AF024A034B1B68136000F0AAF8BC760040FA46004010B5054C237833B9044B13B10448AFF300800123237010BDB1
:400040008881FF1F0000000010140000084B10B51BB108480849AFF300800848036803B910BD074B002BFBD0BDE81040184700BF00000000101400008C81FF1F0881FF1FF9
:400080000000000080B500AF00F0CEFC03461A46024B1A80024B01221A7080BDD081FF1FC381FF1F80B584B000AF00F0A5FC264800F0A4FF00F000FB62B6244B1B78DBB2CE
:4000C000002B3FD0214B00221A70214B1B78DBB2DAB20132D2B2D1B21D4A11705BB21D4A128891B21C4A22F81310194B1B785BB20F2B27D10023BB600023FB730DE097F9FE
:400100000F30154A32F813301BB2BA681344BB60FB7BDBB20133DBB2FB7397F90F300E2BEDDDBB680D4A82FB03121A44D210DB17D31ABB60064B00221A70B86800F0B2FC4E
:400140000346FB80B9E700BF85000000C381FF1FC281FF1FD081FF1FA481FF1F8988888880B500AF01F014F903461B680C2B00D1FEE7FEE780B586B000AF224B7B61224BF1
:400180003B61204B7B6135E03B691B68FB603B695B68BB603B699B683B6000237B600CE0FB681A68BB681A60BB680433BB60FB680433FB607B6804337B607A683B689A42D5
:4001C000EED13B69DB683B6000237B6008E0BB6800221A60BB680433BB607B6804337B607A683B689A42F2D13B6910333B617B69013B7B617B69002BC6D101F0CFF8FFF7B8
:4002000051FFFEE7010000008C15000080B582B000AF174B174A1A60174A174B1B6843F40073136000237B600FE07B68032B04D8124A7B6852F8233000E0114B11497A6803
:4002400041F822307B6801337B607B682F2BECD90D4B1B78DAB20D4B1A700D4B094A1A6000F060F90B4B00221A600837BD4680BD0CED00E00004FA0514ED00E0000000000A
:40028000610100000080FF1FBC7600400481FF1F08ED00E00081FF1F80B582B000AF78603960786800213A6801F0A9F80837BD4680BD00BF80B584B000AFF860B9607A6058
:4002C000F868B9687A6801F08FF81037BD4680BD80B584B000AFF860B9607A60F868B9687A6801F081F81037BD4680BD80B483B000AF0346FB71FEE780B487B000AF786043
:40030000396000233B6100237B6127E07B699B007A6813441B68BB60BB68FB73BB6823F0FF03BB6014E03B695B003A6813441B781A46BB68134419463B695B003A68134475
:400340005B780B703B6901333B61FB7B013BFB73FB7B002BE7D17B6901337B617B69152BD4D91C37BD465DF8047B704780B582B000AF3F4B00221A803E4B50221A703E4B32
:4003800040F2A9321A803D4B18221A703C483D490422FFF79DFF3C4B02221A704FF0402308221A70394B03221A70394B394A1278D2B21A70384B08221A80384B41F25122BB
:4003C0001A800023FB7019237B6014E0FB785B00DAB2334B1B78DBB203F00103DBB21343DBB203F00303FB704FF4F07000F0A4FF7B68013B7B607B68002B02D0FB78032B56
:40040000E4D17B68002B02D10320FFF76FFF254B4FF480721A80234B07221A70224B00221A70224B48221A701E4B00221A70204B02221A701F4B04221A701F4A1E4B1B7818
:40044000DBB243F00303DBB213701C4A1B4B1B78DBB243F00103DBB21370194A184B1B78DBB263F07F03DBB213700837BD4680BD804000408240004084400040864000401D
:4004800000410040141400000043004000420040A146004008010049224200402042004025420040044000400640004008400040014000400B400040A2430040A143004041
:4004C000A043004080B483B000AF0F4B1B78FB710E4AFB7903F00703DBB213700C4AFB791B09DBB213700B4B30221A700A4B10221A700A4B20221A70094B44221A700C37A8
:40050000BD465DF8047B7047CF0100496E5800406F5800400D510040005B0040045B00407658004080B582B000AF72B6374A374B1B78DBB243F00403DBB213700023FB71E7
:4005400013E0FA7913465B0013445B00304A13443B603B681A683B689B889BB210461946FFF79AFEFB790133FB71FB79072BE8D928482949FFF7C0FE284B0A221A70284A1C
:40058000274B1B78DBB243F00203DBB21370254A244B1B78DBB243F00203DBB21370224A214B1B78DBB243F04003DBB213701F4A1E4B1B78DBB243F01003DBB213701C48F1
:4005C0001C490822FFF784FE1B481C490822FFF77FFE1B4A1A4B1B78DBB243F00803DBB21370184B60221A70FFF7C0FE154B80221A70154B01221A70FFF764FF13480A4994
:400600000E22FFF757FE0837BD4680BDE84600401814000048140000A0140000835800400350014013500140A0430040C24300400251004054150000125100405C1500004B
:40064000224300400048004004000840B043004080B582B000AFFF2000F05AF8FF2000F073F800F088FE0346FB710A4A094B1B78DBB243F01003DBB21370FB79184600F0D2
:400680007EFE00F071F8002000F026F80837BD4680BD00BF9A64004080B400AF054A054B1B78DBB263F07F03DBB21370BD465DF8047B70477A64004080B500AF054B1B78C1
:4006C000002B04D1FFF7C4FF024B01221A70FFF7E3FF80BDC481FF1F80B483B000AF0346FB71044AFB7913700C37BD465DF8047B704700BF8A64004080B400AF034B1B783D
:40070000DBB21846BD465DF8047B70476A64004080B483B000AF0346FB71044AFB7913700C37BD465DF8047B704700BF2A64004080B400AF034B1B78DBB21846BD465DF8BD
:40074000047B70474A64004080B483B000AF0346FB71044AFB7913700C37BD465DF8047B704700BF0A64004080B500AF01E0FFF7DFFFFFF7C1FF034603F00803002BF6D17F
:4007800080BD00BF80B582B002AF324B01221A70314B00221A70102000F006FC102000F037FD1D20072100F0A3FD2C4B04221A702B4B00221A702B4B00221A702A4A2A4B14
:4007C0001B78DBB243F01803DBB21370274B00221A70274B00221A70264B00221A70264B0A221A70254B00221A70254B00221A70244B12221A70244B13221A70234B0022D8
:400800001A70234B14221A7001230093042048F6B6514FF400420C2300F012FA1D4A0D4B1B78DBB2013B1C499B000B449B7813701A4A084B1B78DBB2013B174931F8233041
:400840001380044B1B78DBB2184600F04BF9BD4680BD00BF0C81FF1FC881FF1F96580040975800409E580040075B004093580040885B0040895B00408058004081580040FB
:400880008358004088580040895800408D580040014E00400E4E0040CC81FF1F0C4E004080B582B000AF00F066FD0346FB71444B1B78BB71434A434B1B78DBB243F00103A9
:4008C000DBB213703F4A3F4B1B78DBB243F01003DBB213703C4A3C4B1B78DBB243F00103DBB21370384A384B1B78DBB243F01003DBB21370354A354B1B78DBB243F0020319
:40090000DBB21370324A324B1B78DBB243F00203DBB213702F4A2F4B1B78DBB243F00303DBB21370032000F0A9FC284A274B1B78DBB223F00203DBB21370254A244B1B7895
:40094000DBB223F00203DBB21370234A224B1B78DBB243F00603DBB21370204B7A221A701F4A1F4B1B78DBB243F00103DBB213701C4A1C4B1B78DBB243F00103DBB213707D
:40098000194A194B1B78DBB243F00103DBB21370164A164B1B78DBB243F00103DBB21370134B4FF000521A60124B4FF000521A60FB79184600F0E3FC0837BD4680BD00BF31
:4009C0000C81FF1FAA430040BA430040F8460040F9460040915800407758004082580040A1430040B1430040A2430040B243004080E200E000E100E080B500AF084B1B7814
:400A0000002B09D1074B1B78DBB2002B01D1FFF7B9FE034B01221A70FFF742FF80BD00BFCA81FF1FCB81FF1F80B483B000AF174B1B78DBB203F003037B717B79012B03D81C
:400A4000134B1B88FB8011E0114B1B78DBB2FB80104B1B78DBB29BB21B029AB2FB881343FB807B79032B01D10B4B1B780B4B1B78DBB2002B02D00A4B00221A70FB881BB2EC
:400A800018460C37BD465DF8047B7047144E0040104E0040114E0040124E0040C981FF1FC881FF1F80B485B000AF78600B4B1B687A68D31A7B607B684FF47A7202FB03F242
:400AC000074B1B6892FBF3F3FB81FB891BB218461437BD465DF8047B704700BFD881FF1FD481FF1F80B582B000AF0346FB71364B00221A70FB79012B63D1344B32221A70D8
:400B0000334B06221A70334B09221A70324B00221A70324B00221A70314B1F221A70314B00221A70304B00221A70304B00221A702F4B01221A702F4B14221A702E4B09223E
:400B40001A702E4B0A221A702D4B00221A702D4B11221A702C4B12221A702C4B01221A702B4B01221A702B4B11221A702A4B19221A702A4B97221A70442000F017F9284BEB
:400B800058221A70274B00221A70274B05221A70264B01221A70264B00221A70254B0A221A70254B4FF4FA621A600320012100F03FF90F20012100F06FFA1D201F4900F05A
:400BC0006FFB0837BD4680BDC981FF1F004E0040024E0040034E0040044E0040054E0040064E0040084E0040094E00400A4E0040144E00408458004085580040865800407E
:400C0000875800408A5800408B5800408C5800408E5800408F580040905800409158004094580040955800409A5800409B5800409C5800409D580040D481FF1F250E0000C1
:400C400090B587B000AF0446084611461A462346FB710346BB800B467B801346BB7197F82830002B00F08A8097F82830012B00F28580FB79013B092B4AD801A252F823F0B4
:400C8000A90C0000110D0000110D0000A90C0000110D0000110D0000C30C0000DD0C0000110D0000F70C0000BB790F2B04D9364B1B78DBB2FB752EE0344B1B78DBB2FB7500
:400CC00029E0BB790F2B04D9314B1B78DBB2FB7521E0304B1B78DBB2FB751CE0BB790F2B04D92D4B1B78DBB2FB7514E02B4B1B78DBB2FB750FE0BB790F2B04D9284B1B78FF
:400D0000DBB2FB7507E0274B1B78DBB2FB7502E00023FB7500BFBA8897F917305B0113443B617B883A6902FB03F3FB60FB68DB0BBB82BB790D2B11D8BB8ABA79C2F10E0227
:400D40001341BB8297F82830013BBA790132D1B2154A9B0013440A469A7007E097F82830013B114A9B0013440F229A7097F82830013B0D49BA8A21F8232002E0002000F08E
:400D800071FA1C37BD4690BD180100491C010049190100491D0100491A0100491E0100491B0100491F010049CC81FF1F80B584B000AF0346FB7100F0DEFA0346FB73164AE2
:400DC000154B1B78DBB243F00303DBB21370134A124B1B78DBB243F00303DBB21370104AFB791370032000F049FA0B4A0A4B1B78DBB223F00303DBB21370084A074B1B7836
:400E0000DBB223F00303DBB21370FB7B184600F0B6FA1037BD4680BDF8460040F94600409258004080B400AFBD465DF8047B704780B584B000AF03460A46FB8013467B71F8
:400E400000F0CCF80346FB7300F0A2F80346BB81FA88BB899A4200F08780454B1B78DBB203F00103FB72FB7B002B20D1BB89002B02D0FB88002B1AD1BB89002B0BD13D4A0D
:400E8000FB8813803C4A3C4B1B78DBB223F04003DBB2137068E0384A374B1B78DBB243F04003DBB21370334AFB8813805CE0FB7A002B33D0314B00221A70314B01221A70D4
:400EC000304B00221A70304A2F4B1B78DBB203F07F03DBB21370284B1B78DBB203F00803002B02D0FB88002B18D1284ABB891380224B07221A7000BF204B1B78DBB203F067
:400F00000103002BF8D11A4A194B1B78DBB223F00103DBB21370194B00221A70144B1B78DBB203F00103002B13D0184AFB881380124A7B79002B01D0032300E001231370A5
:400F400000BF0E4B1B78DBB203F00103002BF8D10AE0084AFB8813800549054B1B78DAB2FB7A1343DBB20B701037BD4680BD00BFA24300408040004082400040014000407E
:400F80001040004014400040084000400240004080B400AF034B1B889BB21846BD465DF8047B70478040004080B483B000AF0346FB71094B084A1278D2B2D1B2FA7922F06F
:400FC0000702D2B20A43D2B2D2B21A700C37BD465DF8047B704700BF8240004080B400AF054B1B78DBB203F00703DBB21846BD465DF8047B704700BF8240004080B582B002
:4010000000AF786000F03CF8786800F009F8072000F018F800F028F80837BD4680BD00BF80B485B000AF7860054B1B68FB60FB68B4337A681A601437BD465DF8047B704722
:4010400008ED00E080B483B000AF0346FB71054AFB795B01DBB213700C37BD465DF8047B704700BF1DE400E080B400AF034B4FF000521A60BD465DF8047B704700E100E0A5
:4010800080B400AF034B4FF000521A60BD465DF8047B704780E100E080B584B000AF03460A46FB8013467B7100F0CCF80346FB7300F0A2F80346BB81FA88BB899A4200F0A8
:4010C0008780454B1B78DBB203F00103FB72FB7B002B20D1BB89002B02D0FB88002B1AD1BB89002B0BD13D4AFB8813803C4A3C4B1B78DBB223F04003DBB2137068E0384A24
:40110000374B1B78DBB243F04003DBB21370334AFB8813805CE0FB7A002B33D0314B00221A70314B01221A70304B00221A70304A2F4B1B78DBB203F07F03DBB21370284B91
:401140001B78DBB203F00803002B02D0FB88002B18D1284ABB891380224B07221A7000BF204B1B78DBB203F00103002BF8D11A4A194B1B78DBB223F00103DBB21370194BAC
:4011800000221A70144B1B78DBB203F00103002B13D0184AFB881380124A7B79002B01D0032300E00123137000BF0E4B1B78DBB203F00103002BF8D10AE0084AFB88138019
:4011C0000549054B1B78DAB2FB7A1343DBB20B701037BD4680BD00BFA14300400041004002410040014000401440004010400040084000400240004080B400AF034B1B886E
:401200009BB21846BD465DF8047B70470041004080B483B000AF0346FB71094B084A1278D2B2D1B2FA7922F00702D2B20A43D2B2D2B21A700C37BD465DF8047B704700BF71
:401240000241004080B400AF054B1B78DBB203F00703DBB21846BD465DF8047B704700BF0241004080B483B000AF0346FB7101BE0C37BD465DF8047B704700BF80B582B05F
:4012800000AF0346FB80FB88044A127802FB03F3184600F051F80837BD4680BD1881FF1F80B584B000AF03463960FB710F4B1B68FB60FB791F2B02D90020FFF7D3FFFB790D
:4012C00003F01F0310339B00FA6813441B68BB60FB7903F01F0310339B00FA6813443A681A60BB6818461037BD4680BD08ED00E080B582B000AF03460A46FB711346BB71EB
:40130000BB79072B02D90020FFF7ACFFFB791F2B02D90020FFF7A6FFFB7903F01F0303F1604303F56443BA795201D2B21A700837BD4680BD00000000142816D902B4012182
:4013400014381049097811F0C001890904B40E4A515C04BC00BF00BF00BF8841FDD500BF00BF02BC704700BF00BF70F10400FCD570470B050709EFF3108072B6704780F35C
:40138000108870470048004072130000AFF30080014B1868704700BF8081FF1F0E4B70B51E460E4C0025E41AA410A54204D056F8253098470135F8E700F0D6F8084B094C83
:4013C0001E46E41AA4100025A54204D056F8253098470135F8E770BD7415000074150000741500007C15000010B5431E0A44914204D011F8014B03F8014FF8E710BD034657
:401400000244934202D003F8011BFAE770470000000000000F001801205100405000C05100401000F0510040100000000140001000140140000800400140000A004C01402F
:4014400000020050014020000252004001640040010501400107014002090140210A0140150B0140010D014001150140011B014004410140044201400143014002440140BB
:401480000345014002460140014701400248014001490140014C0140024D014002500140000301018A0DE601EA20B240EA2012012E01320136013E40405445EC4720482380
:4014C00049FF4AFF4BFF4F0150185280540158045A045B045C015D115F016040624064406540668068806A806C806E80DB04DF010902100219401A20410149054B405002F5
:40150000510159456C046E807102734080049620C208C401D001D208D60B8E10EC10EC1057105E80D440D6208310A640A710E680B2407F20DE018F20A720E0024508D00181
:40154000A5082510C820B510A508B508EC0800020C0200000003030003003000000B0B000000000043000000F8B500BFF8BC08BC9E4670474D0000000D020000F8B500BF95
:40158000F8BC08BC9E46704729000000A01500000881FF1F800000005800000000000000000000000100000000366E01C05D0000180000000000E02E0000000000000000D2
:4015C0000000000000000000000000000000000000000000000000006415000000000000000000000000000000000000000000000000000000000000000000000000000072
:401600000000000000000000000000000000000000000000000000002081FF1F000000000000000000000000000000000000000000000000000000000000000000000000EB
:40164000000000000000000000000000000000000000000000000000000000000000000000000000000000000000000000000000000000000000000000000000000000006A
:40168000000000000000000000000000000000000000000000000000000000000000000000000000000000000000000000000000000000000000000000000000000000002A
:4016C00000000000000000000000000000000000000000000000000000000000000000000000000000000000000000000000000000000000000000000000000000000000EA
:4017000000000000000000000000000000000000000000000000000000000000000000000000000000000000000000000000000000000000000000000000000000000000A9
:0200000480007A
:0200000490006A
:0400000000004005B7
:0200000490105A
:04000000BC90ACAF55
:0200000490303A
:02000000C07BC3
:0200000490402A
:4000000000000000000000000000000000000000000000000000000000000000000000000000000000000000000000000000000000000000000000000000000000000000C0
:400040000000000000000000000000000000000000000000000000000000000000000000000000000000000000000000000000000000000000000000000000000000000080
:400080000000000000000000000000000000000000000000000000000000000000000000000000000000000000000000000000000000000000000000000000000000000040
:4000C0000000000000000000000000000000000000000000000000000000000000000000000000000000000000000000000000000000000000000000000000000000000000
:0200000490501A
:0C00000000012E16106900012E1DD0E436
:00000001FF