:400000000080002011000000050700000507000008B5044B1A6803F53F5302331A6000F079FB00BFFA46004010B5054C237833B9044B13B10448AFF300800123237010BDEB
:40004000C081FF1F00000000782F0000084B10B51BB108480849AFF300800848036803B910BD074B002BFBD0BDE81040184700BF00000000782F0000C481FF1F0881FF1F83
:400080000000000008B501F0DBF800F035FD68B10B4B1B781BB90122094B1A7006E00222074B1A7002E00A2000F0D6FD00F024FD0028F8D101F0DAF801F0BAF808BD00BF25
:4000C0000C81FF1F08B501F059F800F025FD30B1064801F025FD02E00A2000F0BDFD00F01BFD0028F8D101F09DF908BD7C2F000008B500F07FFF00F007FD02E00A2000F041
:40010000ABFD00F001FD0028F8D101F08BF908BD08B501F02BF901F0DDF801F075F801F043F801F00FF800F047FF00F079FF00F0ABFF00F0D9FF01F0AFF801F04BF801F027
:4001400015F800F0E5FF00F019FF00F04BFF00F07DFF00F0AFFF01F09BF908BD08B5012001F0D8F9002001F0E1F9002008BD00BF10B5002001F0DAF9002001F0CBF901203A
:4001800001F0BCF900240CE0012001F0CFF9012000F062FD002001F0C9F9012000F05CFD0134072CF0DD002010BD00BF10B5012000F0E2FDC82000F04FFD00240CE000F048
:4001C000AFFE044600F0ACFE204400EBD070C0F34704052000F040FD782CF0D9204601F0EDFC002000F0C8FD002010BD08B500F067FF00F059FC28B1FFF7D8FF02E00A2016
:4002000000F02AFD00F050FC0028F8D101F00AF908BD00BF642804D9FF220A4B1A700120704710B50446FFF7C1FF012000F098FD04EB8400400100F00FFD002000F090FD09
:40024000002010BD0C81FF1F08B500F09FFE00F07DFC30B16420FFF7DDFF02E00A2000F0FBFC00F073FC0028F8D101F0DBF808BD10B502F0F3FD42F20F7002F0BBFDFFF736
:4002800095FF02F0BDFD044602F094FD42F20F739C420AD0C4F51C500F30054B83FB0023C017C0EB631080B210BD642010BD00BF1F85EB5108B500F031FF00F035FC28B1B3
:4002C000FFF7D6FF02E00A2000F0C6FC00F02CFC0028F8D101F0A6F808BD00BF10B504462F4B1B78C3B1002000F0FCFF002001F005F8002001F00EF8002001F017F8002059
:4003000001F0CCF8002001F0D5F8002001F0DEF8002001F0E7F81EE000F0010000F0E2FFC4F3400000F0EAFFC4F3800000F0F2FFC4F3C00000F0FAFFC4F3001001F0AEF8ED
:40034000C4F3401001F0B6F8C4F3801001F0BEF8E00901F0C7F804F0010000F01BFCC4F3400000F023FCC4F3800000F02BFCC4F3C00000F033FCC4F3001000F03BFCC4F3C5
:40038000401000F043FCC4F3801000F04BFCE00900F054FC024B187800F0F0FB002010BDDC81FF1F10B590B0002000F0E5FC002000F0D6FC00F09EFD00F0AAFD002001F0EC
:4003C000B5F8012001F0A6F8012001F097F88C4B5878FFF783FF012000F06EFB012000F0CDFB012000F0A6FB012000F079FB012000F0D0FB012000F0D9FB012000F0E2FBA7
:40040000012000F0EBFB012000F0F4FB012000F0FDFB012000F006FC012000F00FFC4FF4FA7000F019FC002000F046FB002000F0A5FB002000F07EFB002000F051FB0020D5
:4004400000F0A8FB002000F0B1FB002000F0BAFB002000F0C3FB002000F0CCFB002000F0D5FB002000F0DEFB002000F0E7FB00F0D9FF644800F0FEFF634800F01DFF634845
:4004800000F0E6FE624800F0B1FE624800F07EFE614800F049FE614800F080FD604800F0B1FD604800F0E2FD5F4800F00FFE042000F0CCFF032000F0E7FE032000F0B0FE1A
:4004C000032000F07FFE032000F048FE032000F017FE032000F04AFD032000F07BFD032000F0ACFD032000F0DDFD62B60020012101F030F9424B1B78032B6ED801A252F868
:4005000023F000BFF5040000150500004D05000089050000002000F0CFFA394C6078FFF7DDFE00F0B9FE00F055FE00F01FFE00F0EFFD00F023FD00F055FD00F087FD00F066
:40054000B9FDFFF715FE03232370D3E7012000F0B3FAFFF703FE0024344B1C702046FFF7BDFE00F0A1FE00F03BFE00F007FE00F0D5FD00F00BFD00F03DFD00F06FFD00F071
:400580009FFD1F4B1C70B5E701F02EF920B101F025F908B101F052FA01F020F90028A9D001F020FB0028A5D0684601F033FB044600289FD001F022FB0028FBD06846214607
:4005C00001F088FA402C95D101F018FB0028FBD00020014601F07EFA8CE7FFF7BFFD0020124B1870FFF77AFE00F072FAB0FA80F0400900F061FA642000F02EFBF4E700BF16
:400600000C81FF1F11010000310600008500000079060000C5000000B502000049020000F1000000BD060000ED010000DC81FF1F08B500F039FE00F099FA98B10D4B5B7803
:4006400013F0800F03D15B000A4A537002E00122084B5A70074B5878FFF740FE02E00A2000F0FAFA00F082FA0028F8D100F0DAFE08BD00BF0C81FF1F08B500F0B1FD00F09B
:400680006DFA90B10C4B5B78012B03D95B080A4A537002E08022084B5A70074B5878FFF71DFE02E00A2000F0D7FA00F057FA0028F8D100F0B7FE08BD0C81FF1F08B500F051
:4006C000CDFC00F045FC88B10C4B1B781BB100220A4B1A7002E00122084B1A70084B5878FFF7FCFD02E00A2000F0B6FA00F030FC0028F8D100F096FE08BD00BFDC81FF1FE0
:400700000C81FF1F08B502F0F7FB03680C2B00D1FEE7FEE708B5104E104D16E029686B68AC68002204E051F8040B43F8040B0432A242F8D1E868002203E0002143F8041BEF
:4007400004328242F9D11035013E002EE6D102F0D9FBFFF727FEFEE7010000003032000008B5124A124B1A60124A136843F40073136000230AE0032B03D80F4A52F8231053
:4007800000E00E490E4A42F8231001332F2BF2D90C4B1A780C4B1A70094A0C4B1A6000F0E5F800220A4B1A6008BD00BF0004FA050CED00E014ED00E00000000005070000EB
:4007C0000080FF1FBC7600400481FF1F08ED00E00081FF1FFEE700BFF0B40022174611E050F82760F3B226F0FF0608E001EB420511F812406D78A5550132013BDBB2002B0F
:40080000F4D101371B2FEBD9F0BC704708B50A46002102F0A8FB08BD38B51322294B1A801823294A13709F21023211801B21023211704FF6FF710232118002321370062292
:40084000224B1A705222A3F580731A70204B1B78DBB2204A13704FF4E1621F4B1A8041F25122023B1A80002419250CE01B4B1B7803F0010343EA440404F003044FF4F07028
:4008800002F0FAFA013D0DB1032CEFD115B90320FFF7A0FF124A4FF48073138007231370002310490B7048200231087013700532137002220C4B1A700C4A137843F00703A5
:4008C000137038BD8040004082400040004300400F010049A14600402242004025420040044000400640004001400040A2430040F8B5164B1B78DBB2154E3478E4B2154F49
:400900003D78EDB203F00701134A11701B090132137044F00303337045F003033B7004220E4B1A70802203F2CC731A70402203F21F231A70202203331A700A2000F0A2F9AA
:400940003D7034704422064B1A70F8BDCF010049F8460040F94600406E5800403D5100407658004008B502F0F3FA08BD38B572B6394A137843F00403137000240CE0374967
:4009800063001A1952000A4423445B00C8589188FFF73CFF0134E4B2062CF0D900240BE02E49A3001A1952000A44D06A116B0822FFF7D8FF0134E4B2002CF1D04FF090409F
:4009C0002749FFF709FF274A137843F0020313701032137843F002031370234C237843F040032370A2F58632513A137843F0100313701E481E490822FFF7B4FF1D481E499D
:400A00000A22FFF7AFFF1D481D490A22FFF7AAFF1C481D490A22FFF7A5FF1C481C490822FFF7A0FF1B481C490A22FFF79BFF1B4A137843F008031370194D61232B70FFF788
:400A4000EBFE81232B70FFF753FF164821460E22FFF788FF38BD00BFE8460040B42F00007000004803500140A04300400251004010020048C051004018020048F0510040FF
:400A8000240200481051004030020048225100403C02004830510040440200482243004000480040B0430040024B1878C0F30010704700BF21510040044A137803F0DF034F
:400AC000400100F0200018431070704730510040024B1878C0F34010704700BF31510040044A137803F0EF03000100F0100018431070704710510040024B1878C0F3C000F8
:400B0000704700BF21510040024B1878C0F38000704700BF21510040024B1878C0F38000704700BF01510040014B1878C009704721510040044A137803F0FB03800000F0F5
:400B40000400184310707047C0510040024B1878C0F38010704700BF21510040024B187800F00100704700BF21510040024B1878C0F3C000704700BF01510040044A13781F
:400B800003F0F703C00000F00800184310707047C0510040044A137803F0F703C00000F0080018431070704730510040044A137803F0BF03800100F040001843107070470B
:400BC00010510040044A137803F07F03C001C0B203431370704700BF10510040044A137803F0DF03400100F0200018431070704710510040044A137803F0DF03400100F0E2
:400C00002000184310707047C0510040044A137803F0FB03800000F0040018431070704710510040044A137803F0EF03000100F01000184310707047C0510040044A1378C5
:400C400003F0EF03000100F010001843107070473051004001BE704710B5044605E0084B186802F009F9A4F50044B4F5004FF6D8034B586800FB04F002F0FEF810BD00BFF6
:400C80003081FF1F08B5034B1B7A03FB00F002F0F3F808BD3081FF1F70B504460E46074B1D681F2802D90020FFF7D4FF04F01F04103455F8240045F8246070BD08ED00E032
:400CC00038B504460D46072902D90020FFF7C2FF1F2C02D90020FFF7BDFF04F01F0000F1604000F564406D01EDB2057038BD00BF134B1B78DBB20360124A127843EA022304
:400D00000360114A127843EA024303600F4A127843EA026303600E4B1B78DBB243600D4A127843EA022343600B4A127843EA024343600A4A127843EA02634360704700BF4F
:400D40000301004904010049EC4600400201004901010049000100490501004906010049044A137803F0FD03400000F0020018431070704730510040044A137803F0FE03C8
:400D800000F0010018431070704700BF3051004008B50A280FD00C2802D0082806D102E04FF4805209E04FF4807206E00020FFF751FF002201E04FF480620021084B1980BF
:400DC00042F2107303FB02F313F5806301D503F2FF73DB12034A13600022034B1A8008BDEC81FF1FF081FF1FF481FF1F10B502F04BF804461E4A137843F0020313701032C4
:400E0000137843F002031370193A137843F0010313701032137843F00103137002F5AA521932137843F0030313701822114B1A70013B1A7842F040021A701A7802F0FC025A
:400E40001A70C822053B1A700222A3F59753123B1A70094A137843F0080313700A20FFF711FF1022054B1A60204602F011F810BDAB4300400E5900402F5B004080E200E0DD
:400E800010B504460A280DD00C2802D0082804D101E0C22207E0422205E00020FFF7DAFEC22200E08222034B1A702046FFF770FF10BD00BF0A59004008B5102000F03EF8D9
:400EC00004200721FFF7FCFE04200749FFF7E4FE064A137843F0060313700820FFF7D0FF0022034B1A8008BD390F000009590040F681FF1F08B5054B1B7823B9FFF7DCFF48
:400F00000122024B1A70FFF771FF08BDDD81FF1F024A137843F001031370704708590040034B1B78034A1088181A40B2704700BFA25B0040F481FF1F704700BF034B1A78A1
:400F400000F0F80010431870704700BF82400040024B1878C0F34010704700BF21510040014B1B689867704708ED00E04001C0B2014B1870704700BF0EE400E04FF4804200
:400F8000014B1A60704700BF00E100E04FF48042014B1A60704700BF80E100E010B50446FFF7F4FF2046FFF7DBFF0720FFF7DEFFFFF7E4FF10BD00BF4FF48042014B1A605A
:400FC000704700BF80E200E0014B1B685866704708ED00E04001C0B2014B1870704700BF09E400E04FF40072014B1A60704700BF00E100E04FF40072014B1A60704700BFB3
:4010000080E100E010B50446FFF7F4FF2046FFF7DBFF0720FFF7DEFFFFF7E4FF10BD00BF4FF40072014B1A60704700BF80E200E0014B1B689866704708ED00E04001C0B2A3
:40104000014B1870704700BF0AE400E04FF48062014B1A60704700BF00E100E04FF48062014B1A60704700BF80E100E010B50446FFF7F4FF2046FFF7DBFF0720FFF7DEFF6C
:40108000FFF7E4FF10BD00BF4FF48062014B1A60704700BF80E200E0014B1B689865704708ED00E04001C0B2014B1870704700BF06E400E04022014B1A60704700E100E069
:4010C0004022014B1A60704780E100E010B50446FFF7F6FF2046FFF7DFFF0720FFF7E2FFFFF7E8FF10BD00BF4022014B1A60704780E200E0014B1B685865704708ED00E0FC
:401100004001C0B2014B1870704700BF05E400E02022014B1A60704700E100E02022014B1A60704780E100E010B50446FFF7F6FF2046FFF7DFFF0720FFF7E2FFFFF7E8FF5A
:4011400010BD00BF2022014B1A60704780E200E0014B1B685867704708ED00E04001C0B2014B1870704700BF0DE400E04FF40052014B1A60704700BF00E100E04FF40052D3
:40118000014B1A60704700BF80E100E010B50446FFF7F4FF2046FFF7DBFF0720FFF7DEFFFFF7E4FF10BD00BF4FF40052014B1A60704700BF80E200E0014B1B68D86570474F
:4011C00008ED00E04001C0B2014B1870704700BF07E400E08022014B1A60704700E100E08022014B1A60704780E100E010B50446FFF7F6FF2046FFF7DFFF0720FFF7E2FFE0
:40120000FFF7E8FF10BD00BF8022014B1A60704780E200E0014B1B68D866704708ED00E04001C0B2014B1870704700BF0BE400E04FF40062014B1A60704700BF00E100E0DD
:401240004FF40062014B1A60704700BF80E100E010B50446FFF7F4FF2046FFF7DBFF0720FFF7DEFFFFF7E4FF10BD00BF4FF40062014B1A60704700BF80E200E0014B1B68CD
:401280001866704708ED00E04001C0B2014B1870704700BF08E400E04FF48072014B1A60704700BF00E100E04FF48072014B1A60704700BF80E100E010B50446FFF7F4FF7F
:4012C0002046FFF7DBFF0720FFF7DEFFFFF7E4FF10BD00BF4FF48072014B1A60704700BF80E200E0044A137803F07F03C001C0B203431370704700BF00510040044A13787C
:4013000003F0BF03800100F0400018431070704700510040044A137803F0DF03400100F0200018431070704700510040044A137803F0EF03000100F01000184310707047B1
:4013400000510040084A137843F0010313701032137843F00103137002F64D32137843F001031370704700BFA3430040084A137803F0FE031370A2F65D32137803F0FE036C
:4013800013701032137803F0FE031370704700BF004F0040014B1870704700BF034F0040014B1880704700BF044F0040014B1880704700BF064F004008B5174B1A7802F006
:4013C00001021A7015490A7802F0FC020A701A7842F004021A700B331A7802F0CF021A701A7842F030021A701A7802F0F0021A701A7842F00F021A70094A137843F00103B1
:4014000013701820FFF7CCFF1820FFF7CFFF0020FFF7C0FF08BD00BF004F0040024F0040014F004008B5054B1B7823B9FFF7C4FF0122024B1A70FFF785FF08BDDE81FF1F40
:40144000014B1B681864704708ED00E04001C0B2014B1870704700BF00E400E00122014B1A60704700E100E00122014B1A60704780E100E010B50446FFF7F6FF2046FFF73C
:40148000DFFF0720FFF7E2FFFFF7E8FF10BD00BF0122014B1A60704780E200E0044A137803F0FE0300F0010018431070704700BFF0510040044A137803F0FD03400000F079
:4014C0000200184310707047F0510040044A137803F0FB03800000F00400184310707047F0510040044A137803F0F703C00000F00800184310707047F0510040044A13781C
:4015000003F0DF03400100F02000184310707047F0510040044A137803F0FE0300F0010018431070704700BF00510040044A137803F0FD03400000F0020018431070704742
:4015400000510040F8B501F09FFC0746404A137843F0010313701032137843F00103137001263C4B1E700225943B1D7002F5E2521B32137803F07F0313700020FFF782FBB1
:40158000354C237803F0F9032370344A137803F0DF0313702378334323703046FFF772FB2820FFF76FFB2E4B1A7802F07F021A701A7802F0BF021A7023782B432370284626
:4015C000FFF760FB237843F0040323700023254A137001321370384601F05AFC17200721FFF76EFB17202049FFF756FB18200721FFF766FB18201D49FFF74EFB152007210C
:40160000FFF75EFB15201A49FFF746FB30460721FFF756FB30461749FFF73EFB28460721FFF74EFB28461449FFF736FB03200721FFF746FB03201149FFF72EFB0C20072169
:40164000FFF73EFB0C200E49FFF726FBF8BD00BFA54300409D6000409443004012600040F851004084600040A1210000891F00009D210000FD2000002D210000612100003D
:401680003124000010B5002304E00124244AD4542344DBB2012BF8D9224B18700023224A1370224A1370224A1370224A1370224A1370224A1370224A1370224B4FF400020A
:4016C0001A604FF080721A604FF400121A6002221A6004221A6008221A6011B1012906D00BE0194A137803F0FE0313700AE0164A137843F00103137004E0134A137843F074
:40170000010313700322114B1A708022203B1A70012001F0B1FB04220D4B1A7010BD00BFAC82FF1F1182FF1F1482FF1F3082FF1F3382FF1F2882FF1F3282FF1F3582FF1F7B
:401740001082FF1F00E100E009600040286000401260004038B505460C46064B1B7823B9FFF7F0FE0122034B1A7028462146FFF789FF38BDDF81FF1F002304E001210E4A65
:40178000D1540B44DBB2012BF8D900230B4A13700B4A13700B4A13700B4A13700B4A13700B4A13700B4A137003220B4B1A708022203B1A70704700BFAC82FF1F1482FF1F1E
:4017C0003082FF1F3382FF1F2882FF1F3282FF1F3582FF1F1082FF1F28600040014B1878704700BF3382FF1F064B1B7813F0FF0F05D0044B1878C0B200221A70704700209C
:40180000704700BF3082FF1F00EB40008000024B18444078704700BF3882FF1F431EDBB2072B0BD8064B00011A18185C00F00F00537843EA0020023880B2704700207047FC
:40184000FC5F0040431EDBB2072B3BD8F0B4074600EB40039B001C4C2344DB889BB2C3F500739A4207D900EB40039B002344DA88C2F5007292B200EB40039B00124C2344ED
:40188000DB7843EA1223114D04012E192B55D3B2737039B909E0CE5C3D010D4C665501339BB200E000239342F5D3430003449B00054A134400225A705A79D2B20001054B0A
:4018C0001A54F0BC704700BF3882FF1FFC5F004078600040FE5F0040431EDBB2072B0BD8430003449B00054A134400225A705A79D2B20001024B1A54704700BF3882FF1F15
:40190000FE5F004070B5D9B1054614460E46C8B1082819D8FFF782FFA04203D22846FFF77DFF0446002305E02901094A525CF25401339BB2A342F7D32846FFF7CDFF04E0B3
:40194000002402E0002400E00024204670BD00BF786000400246002001E0013080B2135C002BFAD1704700BF10B4FF2400220EE00A4B9B5C03EB43039B0009490B449B7882
:40198000DBB2834201D1144602220132D2B2012AEED920465DF8044B704700BF0082FF1F4082FF1F10B5204C2079FFF7DDFF237813F0800F0ED06378DBB2212B2FD11B4B1B
:4019C00007221A80C0EBC000194A1044586000F049FB10BD144B5B78DBB2202B02D0222B10D01EE0114A07231380C0EBC00310490B4453600F4A135C43F00103135400F00B
:401A000059FB10BD084B9B780B4A22F81030094A135C43F00203135400F0E4F910BD002010BD002010BD00BF006000401C82FF1F4081FF1FF881FF1F0C82FF1F10B5002475
:401A40001F4B1C701F4B1C705C700AE01E4B185DC0B2431EDBB2072B01D8FFF73DFF0134E4B2012CF2D9194B1B7813F0FF0F1AD0154B1B7813F0FF0F17D0154B1B7813F0B3
:401A8000FF0F14D0114B1B78DBB2082B11D80E4B1B78DBB2082B0ED80D4B1B78DBB2082B0BD8002010BD012010BD012010BD012010BD012010BD012010BD012010BD00BF3C
:401AC000E081FF1FF881FF1F0482FF1FFC81FF1F0082FF1F70B506460D460E4B1B780E4AD45CE4B204EB44039B000C4A13441B899BB28B4208D204EB44039B0013441D893F
:401B0000ADB20020FFF7A6F8204631462A46FFF799FE70BDE081FF1FFC81FF1F3882FF1F2DE9F8438046224B1B78224AD65CF6B2FFF710FF05460027344606EB46039B0076
:401B40001D4A13441B899BB2AB4208D206EB46039B001344B3F808901FFA89F900E0A946304608EB07014A46FFF76CFEC9EB0505ADB245B906EB46039B000F4A13441B8971
:401B80009BB2994510D14F44BFB204EB44039B00094A13445B7813F0FF0FF6D025B9304600210A46FFF74EFE002DC5D1BDE8F883E081FF1FFC81FF1F3882FF1F00B583B02C
:401BC00002A901F8010D054B1B78054AD05C0122FFF738FE03B05DF804FB00BFE081FF1FFC81FF1F08B5034B1B78034AD05CFFF70BFE08BDE081FF1F0482FF1F08B5034B9D
:401C00001B78034AD05CFFF7FFFD08BDE081FF1FFC81FF1F08B50146074B1B78074AD05CC0B200EB40039B00054A13441A8992B2FFF768FE08BD00BFE081FF1F0482FF1F96
:401C40003882FF1FC37803F0030390F9020000280FDA032B06D002F001030B48C15442F001020EE0C2F380030848C15442F0040207E0032B05D0C2F340030548C15442F0EC
:401C800002021046704700BFFC81FF1F0082FF1F0482FF1F1C4B19781C4A13880B449BB2138000230EE01A4A51680978C9B21948C1545168013151600133DBB2118801397D
:401CC00089B21180124A128892B20AB1072BEAD90D4A1278D2B2082A00D05BB10E490A7882F080020A700F210C4A117002210C4A117004E0022209490A7009490A70094A80
:401D00001370014A137070471082FF1F1282FF1F1C82FF1F00600040A682FF1F3182FF1F1482FF1F3482FF1F0222074B1A708022064B1A700F22064B1A700023054A1370C0
:401D4000054A1370012070471482FF1FA682FF1F3182FF1F1082FF1F3482FF1F08B5FFF799FF08BD10B4184B197801F00F010239C9B2164A13880B449BB21380002010E0B1
:401D8000134B5C68134A125CD2B222705A6801325A600130C0B20139C9B21A88013A92B21A800B4B1B889BB20BB10029E8D10A4B19700A4A137883F0800313700B22084BC4
:401DC0001A705DF8044B7047296000401282FF1F1C82FF1F006000403482FF1FA682FF1F3182FF1F0623064A1370064A13708022054B1A700022054B1A700120704700BF5E
:401E00001482FF1F3182FF1FA682FF1F3482FF1F064B9B6843B1054B9A6810709A6804490988518000229A60704700BF1C82FF1F1282FF1F08B5134B1A78D2B21A701B78EA
:401E4000DBB213F0800F02D00F4A137008BD0220FFF7DEFF0D4B1B7803F06003202B05D0402B06D043B900F0C9FD06E001F014F803E000F071FF00E0002010B90322024B26
:401E80001A7008BD286000403182FF1F0060004008B5084B1978084A13880B449BB213800022064B1A700120FFF7B2FF0322044B1A7008BD1082FF1F1282FF1F1482FF1F3F
:401EC0003182FF1F08B50B4B1B78DBB2042B06D0062B07D0022B0BD1FFF7DAFF08BDFFF741FF08BD0320FFF793FF0322024B1A7008BD00BF1482FF1F3182FF1F08B50022AA
:401F0000044B1A700120FFF783FF0322024B1A7008BD00BF1482FF1F3182FF1F08B50B4B1B7813F0FF0F07D0084A137843F0800307490B70002313700022064B1A7001207A
:401F4000FFF766FF0322044B1A7008BD3282FF1F086000401482FF1F3182FF1F08B5094B1B78DBB2042B06D0062B07D0022B07D1FFF7F4FE08BDFFF7C1FF08BDFFF7CEFF16
:401F800008BD00BF1482FF1F08B5284B1B78DBB213F0100F48D013F0800F0CD003F00F03012B16D1FFF746FF214B1B7813F0800F11D1012312E013F0400F03D0FFF7CEFF2D
:401FC00001230BE013F0200F07D0FFF77BFF012304E0002302E0002300E0002323B3134B1B7813F0800F1FD1124B1B78124A12781343124A13701278D2B29A4214D10C4BAC
:402000001B78DBB2094A127812F0800F07D1084B1B78DBB2054A1370137803F00F03044A1278D2B29342EAD108BD00BF286000403182FF1FA682FF1F3482FF1F2960004079
:402040000022064B1A80064B9B682BB1044A916800230B7092685380704700BF1282FF1F1C82FF1F08B50F4B1B889BB213B9FFF75BFE15E002220C4B1A7000220B4B1A706F
:40208000FFF7DEFF0A4AD179937943EA0123054A128892B29A4201D9024A1380FFF7FAFD012008BD1C82FF1F1482FF1FA682FF1F0060004008B504220B4B1A7080220B4BAC
:4020C0001A70FFF7BDFF0A4AD179937943EA0123084A128892B29A4201D9064A13800B22054B1A70012008BD1482FF1FA682FF1F006000401C82FF1F3182FF1F0122094B55
:402100001A700F3B9B7C084B1B7B03F00303934204D0054AD37B83F08003D3730122024B5A7370470B6000403882FF1F02220A4B1A700F3B93F82230084B1B7E03F00303CA
:40214000012B04D0054AD37E83F08003D3760122024B5A76704700BF0B6000403882FF1F04220C4B1A700F3B93F832300A4B93F8243003F00303012B06D0074A92F82730A8
:4021800083F0800382F827300122034B83F82520704700BF0B6000403882FF1F704700BF08B5FFF7E9FA08BD08B50B4B18780138C0B200F0C9F9094B1B79DBB200EBC3003A
:4021C00042690749CB5C02EBC3035B68596A0B78044A1380516008BD3382FF1F00600040A482FF1F1C82FF1F08B50D4B18780138C0B200F0A9F90B4B1B79DBB200EBC30030
:4022000042690949CB5C02EBC3035B68DB69597813F8022B42EA012204490A804B6008BD3382FF1F00600040A482FF1F1C82FF1F10B50022194B1A80194B18780138C0B22A
:4022400000F082F91749CB78DAB20B79DBB200EBC3004169012B20D81348C35C01EBC3014968531EDBB2022B17D802F10053013B01EBC3000B4A9278D2B211F833309342ED
:402280000BD3406802EB4202920081184C68034B5C60825A1A808A689A6010BD1C82FF1F3382FF1F00600040A482FF1F08B55B4B1A79D2B21B7813F0800F4DD0574B5B78AB
:4022C000013B052B00F28D80DFE803F0212B3B8B8B03524BDB78DBB2212B09D1FFF764FF4F4B1B889BB2002B7DD0FFF7BBFE08BD4A4BDB78DBB2222B77D1FFF775FF484BA0
:402300001B889BB2002B72D0FFF7ACFE08BDFFF78FFF434B1B889BB2002B6AD0FFF7A2FE08BD012A67D83D4B9B7813F0FF0F64D13B4901230B803B4B1A444A60FFF792FE87
:4023400008BD012A5BD8364901230B80364B1A444A60FFF787FE08BD304B5B78DBB20A2B0DD00B2B2ED0092B4BD1FFF761FF2C4B1B889BB2002B46D0FFF79CFE08BD012A54
:4023800043D8264B9B7813F0FF0F40D1234BDB78DBB224498B548B5C2449895CDBB28B4203D20021214B995409E0204B9B5CDBB2012B04D91B4B9B5CDBB21C498B54FFF7DB
:4023C00011FD08BD012A24D8144B9B78DBB2012B21D8124B9B78DBB213498B54FFF702FD08BD002008BD002008BD002008BD002008BD002008BD002008BD002008BD00206A
:4024000008BD002008BD002008BD002008BD002008BD002008BD002008BD00BF006000401C82FF1FB482FF1FAC82FF1FB082FF1F08B500F0AFFC08BD70B588B0054603ACFA
:40244000174E0FCE0FC43368237035B322232B7003236B7001A8FEF74BFC002402231AE008AA224412F81C2C08A901EB121111F8141CE954581C00212954981C02F00F02BF
:4024800008AE324412F8142C2A54DA1CA9540134E4B20433DBB2212BE2D908B070BD00BFEC2F000010B401223DE0114613010C242148C45402EB42039B00204803445B7970
:4024C00013F0FF0F12D002EB42039B0003441B7913F0800F04D01001194B03449C700AE01001174B03440820987004E01001144B0344802098704B000B449B000F48034429
:40250000DC88E4B208010C4901448C71D888C0F30720C871D888C0B20871DB88C3F307234B710132D2B2082ABFD9FF22054B1A705DF8044B704700BF706000403882FF1FC6
:40254000FC5F00400A600040074B1B78074A02EBC30253681A7C824203D903EBC003586970470020704700BF1182FF1F3C300000F8B5404B1B7813F0FF0F79D03D4B187824
:402580000138C0B2FFF7E0FF047AC2683A4B1878C0B200236AE01178814264D13749095CC9B25578A9425ED1917801F07F01D67806F00306DFF8C8E04D000D44AD000EEBAD
:4025C00005074FF0000C87F803C092F802C087F804C092F803C00EF805C095883D8192F90250002D0DDA012E01D1072700E00D274D000D44AD00224E35446F7101266E7073
:402600000CE0012E01D1052700E009274D000D44AD001B4E35446F7100266E70DFF868E00F010EEB07060125B57001FA05F529448900134D29440D89C5F307250EF8075051
:402640000D89EDB27570CE88F6B20E4D3D44AE71CE88C6F30726EE71CE88F6B22E71C988C1F30721697108320133DBB2A34292D3F8BD00BF3382FF1F2882FF1FA482FF1F70
:402680003882FF1F70600040FC5F0040034B1A78034B03EBC2035868704700BF1182FF1F3C30000008B5074B18780138C0B2FFF74BFF28B14268127900EBC203586908BD95
:4026C000002008BD3382FF1F2DE9F84300220EE06D4E53009D18AD00741900217155A170E1702181A172617061710132D2B2082AEED940B90AE000226449CA546449CA54D8
:402700000133DBB200E00023012BF4D9614B1B7813F0FF0F00F0B5805E4B18780138C0B2FFF712FF80464368DB7913F0400F05D0594A137843F00103137004E0564A137899
:4027400003F0FE03137098F808704FF0000901266CE0D8F80C50002464E0AB7803F07F039E425CD1314606EB46039B00464803441B899BB2A888834205D206EB46039B0033
:40278000414A134418812B784048C35CDBB26878834244D195F802C03B484B000B449B0000EB030E8EF804C095F803E000F803E0EB7803F0030395F90200002811DA012B4A
:4027C00002D14FF0070C01E04FF00D0CDFF8B8E04B0058188000704480F805C00123437012E0012B02D14FF0050C01E04FF0090C25484FEA410E0EEB01039B00034483F844
:4028000005C0194600234B70AB790A2B01D0022B05D1284631464A46FFF714FA814608350134E4B2BC4298D30136F6B2082E90D9D8F80C0000220CE0837803F07F0310F8D8
:40284000084B03EB43039B0014490B449C700132D2B2BA42F0D3FFF725FF114B1860002001220AE0084C5300991889002144C8800B89184480B20132D2B2082AF2D9FFF793
:4028800011FEBDE8F88300BF3882FF1FA482FF1F1882FF1F3382FF1F3582FF1F4082FF1F2C82FF1F08B5154B1A7902F07F02531EDBB2072B20D8530013449B0010490B44CA
:4028C000997841F0010199700021D970597841F0020159701B7913F0800F05D01201094B13448D229A7004E01201064B134489229A70FFF777FA08BD002008BD00600040DC
:402900003882FF1FFC5F0040264B1B7903F07F035A1ED2B2072A43D810B55A001A44920021490A44917801F0FE0191700021D17019017F241D484454517801F0FD0151700C
:40294000127912F0800F14D003EB4302920016490A445278D2B2012A05D11B0102461A440C23937019E01B01104A1A440D23937013E003EB430292000B490A445278D2B2FA
:40298000012A05D11B01094A1A440823937004E01B01064A1A4409239370FFF723FA10BD00207047006000403882FF1FFC5F004010B50E4B1C79E4B20D4B18780138C0B298
:4029C000FFF7C2FD43681B799C4201D9022C0AD8084A135DDBB208490B55044B9B78DBB21355012010BD002010BD00BF006000403382FF1FA482FF1F1882FF1F10B5964B15
:402A00001B78DBB20021954A118013F0800F00F0B380914A5278D2B20A2A00F27981DFE812F06F00770177017701770177010B00770198007701A000874BDB78DBB2012B46
:402A400009D1FFF723FE4268844B5A6012221A80FFF708FB10BD804BDB78DBB2022B13D17D4B9878FFF770FD002800F0538142687A4B5A605A68D1785A68927842EA01226C
:402A80001A80FFF7EFFA10BD734BDB78DBB2032B05D032E00A7811440133DBB201E000236F496D4A9278D2B29A4203D90A7812F0FF0FEFD1684B9B78DBB2EE2B00D169498B
:402AC000654B9B7813F0FF0F0BD0634B9B78DBB2654A127C934204D1644C2046FFF7ACFC21460B7813F0FF0F00F016810B785B4A13805160FFF7B6FA10BD00F0CDF910BD5A
:402B000013F0030317D0022B40F0088153490B80514B1B7903F07F0303EB43039B00544A13449A78D2B2534B1A7000225A704B60FFF798FA10BD494902230B804E4B1A7818
:402B4000D2B24C4B1A7000225A704B60FFF78AFA10BD424B01221A80484A5A60FFF782FA10BD3E4A012313803B4B1B7944490B445360FFF777FA10BD374A5278013A0A2A27
:402B800000F2CE80DFE812F04B00CC009700CC000B00CC00CC00CC001300CC0030002E4B9B78DBB2374A1370FFF71CF910BD2A4B9B7803F0FF041BB1601EC0B2FFF7C4FC2F
:402BC00004B110B9002C40F0AD802C4B1B78DBB29C4206D0294B1C7001202B4B1870FFF773FDFFF7FFF810BDFFF7E2FE002800F09B80194A1379DBB21279D2B223490A70CA
:402C0000234AD25C1E49C95CD3B28B4204D001221D4B1A70FFF7ACFCFFF7E4F810BD03F00303012B36D04BB1022B7FD10A4B9B7813F0FF0F7CD1FFF767FE10BD064B9B78FF
:402C4000DBB2012B76D10C4A137803F0FD031370FFF7C8F810BD00BF006000401C82FF1FDC30000028300000F4310000B882FF1F3882FF1FE481FF1F3582FF1F3382FF1F7B
:402C8000A482FF1F3282FF1F3082FF1F2882FF1F1882FF1F2D4B1B79DBB2012B4CD82B4B98781B79DBB22A49CA5C22EA0002CA54FFF798F810BD03F00303012B17D04BB1FE
:402CC000022B3BD1214B9B7813F0FF0F38D1FFF7E9FD10BD1D4B9B78DBB2012B32D11D4A137843F002031370FFF77CF810BD174B1B79DBB2012B27D8144B98781B79DBB200
:402D00001349CA5C22EA0002CA54FFF76BF810BD002010BD002010BD002010BD002010BD002010BD002010BD002010BD002010BD002010BD002010BD002010BD002010BDA3
:402D4000002010BD002010BD002010BD00600040A882FF1F3582FF1F08B50B4B1B7813F0800F0CD0084B5B78DBB2012B09D1074B074A5A6012781A80FFF774F908BD002039
:402D800008BD002008BD00BF006000401C82FF1F00300000024B1878C0F38010704700BF8F450040024A137843F08003137070477B640040024A137803F07F031370704708
:402DC0007B640040014B1870704700BF8B640040014B1878704700BF6B640040014B1880704700BF54680040014B188880B2704794680040014B1880704700BF146800405D
:402E0000024B1B78024B188880B270470A6400409468004008B501E0FFF7E6FFFFF7D8FF10F0080FF8D108BD08B542F20F70FFF7D5FF42F20F70FFF7DDFF00F025F8064AEB
:402E4000137843F01003137000F022F8FFF7E2FF0020FFF7B7FF08BD9B64004008B5054B1B7823B9FFF7E0FF0122024B1A70FFF799FF08BDE881FF1F0230800803D000BFDC
:402E800001380046FCD17047EFF3108072B6704780F31088704700BF08B5144B1B7803F00303012B02D0022B04D00FE00F4B1B79DBB20CE00D4B1B7903F07F0303EB4303AB
:402EC0009B000B4A13449B78DBB200E00023094A1268D35C022B04D0032B05D1FFF7E6F908BDFEF75FFD08BD002008BD006000404082FF1F2C82FF1F014B1868704700BFC4
:402F0000BC81FF1F0E4B70B51E460E4C0025E41AA410A54204D056F8253098470135F8E700F074F9084B094C1E46E41AA4100025A54204D056F8253098470135F8E770BD12
:402F40001832000018320000183200002032000010B5431E0A44914204D011F8014B03F8014FF8E710BD03460244934202D003F8011BFAE77047000000000000626C616244
:402F80006C61000031000000312E3500320000004E6F6E65000000004F6464004576656E000000004D61726B000000005370616365000000004F00400C0040510040300005
:402FC00000000140001000140140000800400140000A004C0140000200500140200000000051014008020048080000003031323334353637383941424344454600000000CA
:403000002800000000010400010000000000000000014359555342000000303030303100000000000000000012034D00530046005400310030003000010000000100000008
:403040004430000001000000F43100000000000000000000010000005C30000001000000B0310000030000008830000000000000000000000000000000000000000000008C
:4030800084300000020A000000008103080002000100820240000A000100030240000A00320005010902A1010901A1000509190129031500250195037501810295017505E3
:4030C00081010501093009311581257F750895028106C0C00000000002030000040309042C0343007900700072006500730073002000530065006D00690063006F006E0061
:4031000064007500630074006F0072003803430044004300200043006F006D006D0075006E00690063006100740069006F006E00200049006E00740065007200660061009A
:4031400063006500260343004400430020004400610074006100200049006E0074006500720066006100630065001003550053004200550041005200540022034C0075002A
:403180006B00610073002000430072006500750074007A00620075007200670010034400530050005F0041006D007000000000000902430002010680FA0904000001020229
:4031C0000002052400100104240202052406000105240100010705810308000A09040100020A0000030705820240000007050302400000001201000202000008B40432F231
:40320000010005068001000043000000F8B500BFF8BC08BC9E4670474D00000061070000F8B500BFF8BC08BC9E46704729000000403200000881FF1FB800000020010000F0
:403240000000000002010000842F0000882F00008C2F0000902F0000982F00009C2F0000A42F0000AC2F00000000E02EC05D00001800000000366E0100C201000000080074
:40328000C201000000080000A12000000000020000000000000000000000000000000000000000000000000000000000000000000000000008320000000000000000000046
:4032C000000000000000000000000000000000000000000000000000000000000000000000000000000000000000000000000000000000005C81FF1F0000000000000000D3
:40330000000000000000000000000000000000000000000000000000000000000000000000000000000000000000000000000000000000000000000000000000000000008D
:40334000000000000000000000000000000000000000000000000000000000000000000000000000000000000000000000000000000000000000000000000000000000004D
:40338000000000000000000000000000000000000000000000000000000000000000000000000000000000000000000000000000000000000000000000000000000000000D
:4033C00000000000000000000000000000000000000000000000000000000000000000000000000000000000000000000000000000000000000000000000000000000000CD
:020000040003F7
:0200000480007A
:4000000001450040024F004001520040015B0040016400400101014003030140020501403C0A01401B0B0140030D0140040E0140020F014002150140021B014008400140E0
:40004000144101401542014001430140014401400B45014008460140074701400348014003490140044C0140034D0140025001407E0201200A4B7C402F848B0DE208E20EF3
:40008000E602EE08EA21EE0D403449FF4AFF4BFF4F0150185A045D015F016040624064406540668068806A806C806E80800482288C0F9401960898029A28AE17B008B2078E
:4000C000B410B620BA02BE40C034C5ECC602C807C9FFCAFFCBFFCD83CE03CF01D018D280D401D804DA04DB04DC01DD11DF01E040E240E440E540E680E880EA80EC80EE8034
:40010000044006800D080E0817801C501D081E081F4040104280450846804BC04D044F0156805D045F417780C090C260C480D0C3D6D0EA21EE0DAF20E20EE602B820BE103C
:40014000D804DF011F20E208E810EE02E810EE023282340235803B408580CCF0CE10E21003040708338834803708394083108602871897409C02A301A682AF01C0C0CCF0FB
:40018000CE10E270E640EE101280331037243B106302931097409B34A301A680A880A940AB20AF80B002C410CCB0CE10D640EA80EEB0974087100048070408020A010F8288
:4001C0008340840C86019710C00BC20F97109C80A408A842AB04AF01B080EA0408800B100C0897109C80A408C20E24089740C820AF40B404EE401F103402C601CC01AF109E
:40020000B402E80800020C02AAFFFF3C000000000FFFF000000000003400003C3C000000000000004000202F0F000000C0000000F40000FFFF00000000000000FDFD000030
:40024000000000001800033B3800000004000000000000000000000000000000000000000000000000000000000000000000000000000000000000000000000000000000EC
:40028000000000000000000000000000000000000000000000000000000000000000000000000000000000000000000000000000000000000000000000000000000000003E
:4002C00000000000000000000000000000000000000000000000000000000000000000000000000000000000000000000000000000000000000000000000000000000000FE
:4003000000000000000000000000000000000000000000000000000000000000000000000000000000000000000000000000000000000000000000000000000000000000BD
:40034000000000000000000000000000000000000000000000000000000000000000000000000000000000000000000000000000000000000000000000000000000000007D
:0200000490006A
:0400000000004005B7
:0200000490105A
:04000000BC90ACAF55
:0200000490303A
:020000008FFF70
:0200000490402A
:4000000000000000000000000000000000000000000000000000000000000000000000000000000000000000000000000000000000000000000000000000000000000000C0
:400040000000000000000000000000000000000000000000000000000000000000000000000000000000000000000000000000000000000000000000000000000000000080
:400080000000000000000000000000000000000000000000000000000000000000000000000000000000000000000000000000000000000000000000000000000000000040
:4000C0000000000000000000000000000000000000000000000000000000000000000000000000000000000000000000000000000000000000000000000000000000000000
:0200000490501A
:0C00000000012E16106900012E29A068D6
:00000001FF