:400000000080002011000000990500009905000008B5044B1A6803F53F5302331A6000F0C3FA00BFFA46004010B5054C237833B9044B13B10448AFF300800123237010BD7E
:400040008881FF1F00000000B8110000084B10B51BB108480849AFF300800848036803B910BD074B002BFBD0BDE81040184700BF00000000B81100008C81FF1F0881FF1FAF
:400080000000000008B500F0E9FE00F075FC68B10B4B1B781BB90122094B1A7006E00222074B1A7002E00A2000F03CFD00F064FC0028F8D100F0E8FE00F0C8FE08BD00BF08
:4000C0000C81FF1F08B500F061FE00F065FC50B100F0D8FCB0FA80F0400900F0C7FC02E00A2000F01FFD00F057FC0028F8D100F0A7FF08BD08B500F019FE00F055FC50B170
:4001000000F0D4FCB0FA80F0400900F0C3FC02E00A2000F007FD00F047FC0028F8D100F08FFF08BD08B500F033FD00F04FFC50B100F0D0FCB0FA80F0400900F0BFFC02E0C1
:400140000A2000F0EFFC00F041FC0028F8D100F077FF08BD08B500F04FFD00F015FC50B100F0CCFCB0FA80F0400900F0BBFC02E00A2000F0D7FC00F007FC0028F8D100F0D1
:400180005FFF08BD08B500F09FFD00F0CDFB50B100F040FCB0FA80F0400900F02FFC02E00A2000F0BFFC00F0BFFB0028F8D100F047FF08BD08B500F0E7FE00F099FE00F01A
:4001C0002FFE00F0F9FD00F0C5FD00F0F7FC00F029FD00F05BFD00F08DFD00F06BFE00F001FE00F0CBFD00F09BFD00F0C9FC00F0FBFC00F02DFD00F05FFD00F057FF08BDEA
:4002000010B504462F4B1B78C3B1002000F078FE002000F081FE002000F08AFE002000F093FE002000F048FF002000F051FF002000F05AFF002000F063FF1EE000F001005F
:4002400000F05EFEC4F3400000F066FEC4F3800000F06EFEC4F3C00000F076FEC4F3001000F02AFFC4F3401000F032FFC4F3801000F03AFFE00900F043FF04F0010000F001
:40028000D1FBC4F3400000F0D9FBC4F3800000F0E1FBC4F3C00000F0E9FBC4F3001000F0F9FBC4F3401000F009FCC4F3801000F019FCE00900F02AFC024B187800F09EFB11
:4002C000002010BDA481FF1F08B5724B5878FFF797FF012000F030FB012000F08FFB012000F068FB012000F03BFB012000F09AFB012000F0A3FB012000F0ACFB012000F048
:40030000B5FB012000F0C6FB012000F0D7FB012000F0E8FB012000F0F9FB4FF4FA7000F001FC002000F008FB002000F067FB002000F040FB002000F013FB002000F072FB5A
:40034000002000F07BFB002000F084FB002000F08DFB002000F09EFB002000F0AFFB002000F0C0FB002000F0D1FB00F069FE4A4800F08EFE494800F0ADFD494800F076FD42
:40038000484800F03FFD484800F008FD474800F0D3FC474800F004FC464800F035FC464800F066FC454800F097FC042000F05CFE032000F077FD032000F040FD032000F038
:4003C00009FD032000F0D2FC032000F0A1FC032000F0CEFB032000F0FFFB032000F030FC032000F061FC62B62A4B1B78032B41D801A252F823F000BFE903000009040000AF
:400400003D040000E9030000002000F095FA214C6078FFF7F5FE00F04DFD00F0E3FC00F0ADFC00F07DFC00F0ABFB00F0DDFB00F00FFC00F041FC03232370D5E7012000F0AB
:400440007BFA00241E4B1C702046FFF7D9FE00F039FD00F0CFFC00F099FC00F067FC00F097FB00F0C9FB00F0FBFB00F02DFC094B1C70B9E70020124B1870FFF7C1FE00F0A3
:4004800067FAB0FA80F0400900F056FA642000F049FBF4E70C81FF1FB5010000C5040000850000000D050000C5000000F500000025010000550100005105000085010000D2
:4004C000A481FF1F08B500F0FDFC00F08FFA98B10D4B5B7813F0800F03D15B000A4A537002E00122084B5A70074B5878FFF788FE02E00A2000F016FB00F078FA0028F8D12E
:4005000000F09EFD08BD00BF0C81FF1F08B500F071FC00F063FA90B10C4B5B78012B03D95B080A4A537002E08022084B5A70074B5878FFF765FE02E00A2000F0F3FA00F0B8
:400540004DFA0028F8D100F07BFD08BD0C81FF1F08B500F085FB00F0FBFA88B10C4B1B781BB100220A4B1A7002E00122084B1A70084B5878FFF744FE02E00A2000F0D2FA64
:4005800000F0E6FA0028F8D100F05AFD08BD00BFA481FF1F0C81FF1F08B500F0CDFD03680C2B00D1FEE7FEE708B5104E104D16E029686B68AC68002204E051F8040B43F88E
:4005C000040B0432A242F8D1E868002203E0002143F8041B04328242F9D11035013E002EE6D100F0AFFDFFF76FFEFEE7010000002812000008B5124A124B1A60124A136826
:4006000043F40073136000230AE0032B03D80F4A52F8231000E00E490E4A42F8231001332F2BF2D90C4B1A780C4B1A70094A0C4B1A6000F0D9F800220A4B1A6008BD00BF38
:400640000004FA050CED00E014ED00E000000000990500000080FF1FBC7600400481FF1F08ED00E00081FF1FFEE700BFF0B40022174611E050F82760F3B226F0FF0608E0C9
:4006800001EB420511F812406D78A5550132013BDBB2002BF4D10137172FEBD9F0BC70470A4B1B78DBB203F00701094A11701B09013213700422074B1A704023064A1370E6
:4006C000583213704422054B1A707047CF0100496E5800403D510040005B00407658004008B50A46002100F05EFD08BD08B500F04FFD08BD38B500242F4B1C805022023396
:400700001A704FF6FF7202331A80182202331A702A482B490422FFF7E9FF0622294B1A705222A3F580731A70274B1B78DBB2274A13704FF4E162264B1A8041F25122023B1E
:400740001A8019250CE0234B1B7803F0010343EA440404F003044FF4F07000F0DDFC013D0DB1032CEFD115B90320FFF77DFF1A4A4FF48073138007231370002317490B70BB
:400780004820023108701370053213700222144B1A7004220A331A70124A137843F003031370013A137843F001031370013A137843F08003137038BD804000400041004057
:4007C000D0010048004300400F010049A14600402242004025420040044000400640004001400040A243004038B572B6394A137843F00403137000240AE0374963001A19DE
:4008000052000A44D068118AFFF76AFF0134E4B2062CF2D900240BE02F49A3001A1952000A44906BD16B0822FFF760FF0134E4B2002CF1D04FF090402849FFF717FF0A24F9
:40084000274B1C70274A137843F0020313701032137843F002031370234D2B7843F040032B70A2F58632513A137843F0100313701E481F490822FFF739FF1E481E4922468E
:40088000FFF734FF1D481E492246FFF72FFF1D481D492246FFF72AFF1C481D490822FFF725FF1C481C492246FFF720FF1B4A137843F0080313701A4C61232370FFF71AFFD4
:4008C00081232370FFF7ECFE164829460E22FFF70DFF38BDE8460040BC110000600000488358004003500140A04300400251004090010048C051004098010048F051004019
:40090000A401004810510040B001004822510040BC01004830510040C40100482243004000480040B0430040024B1878C0F30010704700BF21510040044A137803F0DF03D4
:40094000400100F0200018431070704730510040024B1878C0F34010704700BF31510040044A137803F0EF03000100F0100018431070704710510040024B1878C0F3C00079
:40098000704700BF21510040024B1878C0F38000704700BF21510040024B1878C0F38000704700BF01510040014B1878C009704721510040044A137803F0FB03800000F077
:4009C0000400184310707047C0510040024B1878C0F38010704700BF21510040024B187800F00100704700BF21510040024B1878C0F3C000704700BF01510040044A1378A1
:400A000003F0F703C00000F00800184310707047C0510040024B1878C0F3C000704700BFC1510040044A137803F0F703C00000F0080018431070704730510040044A13786C
:400A400003F0BF03800100F0400018431070704710510040044A137803F07F03C001C0B203431370704700BF10510040044A137803F0DF03400100F02000184310707047EB
:400A800010510040024B1878C0F34010704700BF11510040044A137803F0DF03400100F02000184310707047C0510040024B1878C0F34010704700BFC1510040044A13783A
:400AC00003F0FB03800000F0040018431070704710510040024B1878C0F38000704700BF11510040044A137803F0EF03000100F01000184310707047C0510040024B1878B7
:400B0000C0F30010704700BFC1510040044A137803F0EF03000100F010001843107070473051004010B5044605E0084B186800F0F3FAA4F50044B4F5004FF6D8034B5868C3
:400B400000FB04F000F0E8FA10BD00BF1081FF1F024B1878C0F34010704700BF21510040024B1B68C3F88000704700BF08ED00E04001C0B2014B1870704700BF10E400E04A
:400B80004FF48032014B1A60704700BF00E100E04FF48032014B1A60704700BF80E100E010B50446FFF7F4FF2046FFF7D9FF0720FFF7DEFFFFF7E4FF10BD00BF4FF4803251
:400BC000014B1A60704700BF80E200E0014B1B68D866704708ED00E04001C0B2014B1870704700BF0BE400E04FF40062014B1A60704700BF00E100E04FF40062014B1A6005
:400C0000704700BF80E100E010B50446FFF7F4FF2046FFF7DBFF0720FFF7DEFFFFF7E4FF10BD00BF4FF40062014B1A60704700BF80E200E0014B1B685867704708ED00E033
:400C40004001C0B2014B1870704700BF0DE400E04FF40052014B1A60704700BF00E100E04FF40052014B1A60704700BF80E100E010B50446FFF7F4FF2046FFF7DBFF0720AD
:400C8000FFF7DEFFFFF7E4FF10BD00BF4FF40052014B1A60704700BF80E200E0014B1B681866704708ED00E04001C0B2014B1870704700BF08E400E04FF48072014B1A604C
:400CC000704700BF00E100E04FF48072014B1A60704700BF80E100E010B50446FFF7F4FF2046FFF7DBFF0720FFF7DEFFFFF7E4FF10BD00BF4FF48072014B1A60704700BF0D
:400D000080E200E0014B1B68D865704708ED00E04001C0B2014B1870704700BF07E400E08022014B1A60704700E100E08022014B1A60704780E100E010B50446FFF7F6FFD7
:400D40002046FFF7DFFF0720FFF7E2FFFFF7E8FF10BD00BF8022014B1A60704780E200E0014B1B68D867704708ED00E04001C0B2014B1870704700BF0FE400E04FF4004282
:400D8000014B1A60704700BF00E100E04FF40042014B1A60704700BF80E100E010B50446FFF7F4FF2046FFF7DBFF0720FFF7DEFFFFF7E4FF10BD00BF4FF40042014B1A605C
:400DC000704700BF80E200E0014B1B685866704708ED00E04001C0B2014B1870704700BF09E400E04FF40072014B1A60704700BF00E100E04FF40072014B1A60704700BFB5
:400E000080E100E010B50446FFF7F4FF2046FFF7DBFF0720FFF7DEFFFFF7E4FF10BD00BF4FF40072014B1A60704700BF80E200E0014B1B689867704708ED00E04001C0B2A4
:400E4000014B1870704700BF0EE400E04FF48042014B1A60704700BF00E100E04FF48042014B1A60704700BF80E100E010B50446FFF7F4FF2046FFF7DBFF0720FFF7DEFFAA
:400E8000FFF7E4FF10BD00BF4FF48042014B1A60704700BF80E200E0014B1B689866704708ED00E04001C0B2014B1870704700BF0AE400E04FF48062014B1A60704700BFC5
:400EC00000E100E04FF48062014B1A60704700BF80E100E010B50446FFF7F4FF2046FFF7DBFF0720FFF7DEFFFFF7E4FF10BD00BF4FF48062014B1A60704700BF80E200E05F
:400F0000044A137803F07F03C001C0B203431370704700BF00510040044A137803F0BF03800100F0400018431070704700510040044A137803F0DF03400100F020001843A4
:400F40001070704700510040044A137803F0EF03000100F0100018431070704700510040084A137843F0010313701032137843F00103137002F64D32137843F001031370ED
:400F8000704700BFA3430040084A137803F0FE031370A2F65D32137803F0FE0313701032137803F0FE031370704700BF004F0040014B1870704700BF034F0040014B18800F
:400FC000704700BF044F0040014B1880704700BF064F004008B5174B1A7802F001021A7015490A7802F0FC020A701A7842F004021A700B331A7802F0CF021A701A7842F04A
:4010000030021A701A7802F0F0021A701A7842F00F021A70094A137843F0010313701820FFF7CCFF1820FFF7CFFF0020FFF7C0FF08BD00BF004F0040024F0040014F0040FF
:4010400008B5054B1B7823B9FFF7C4FF0122024B1A70FFF785FF08BDA581FF1F014B1B681864704708ED00E04001C0B2014B1870704700BF00E400E00122014B1A60704786
:4010800000E100E00122014B1A60704780E100E010B50446FFF7F6FF2046FFF7DFFF0720FFF7E2FFFFF7E8FF10BD00BF0122014B1A60704780E200E0044A137803F0FE0344
:4010C00000F0010018431070704700BF00510040044A137803F0FD03400000F0020018431070704700510040044A137803F0BF03800100F04000184310707047305100406A
:40110000044A137803F07F03C001C0B203431370704700BF305100400230800803D000BF01380046FCD17047EFF3108072B6704780F31088704700BF014B1868704700BFCB
:401140008081FF1F0E4B70B51E460E4C0025E41AA410A54204D056F8253098470135F8E700F050F8084B094C1E46E41AA4100025A54204D056F8253098470135F8E770BD51
:401180001012000010120000101200001812000010B5431E0A44914204D011F8014B03F8014FF8E710BD03460244934202D003F8011BFAE77047000000000000035B0040B5
:4011C0002443004040000000004F00400C0040510040300000000140001000140140000800400140000A004C01400002005001402000000000510140880100480800000088
:4012000043000000F8B500BFF8BC08BC9E4670474D000000F5050000F8B500BFF8BC08BC9E46704729000000381200000881FF1F8000000020000000000000000201000069
:401240000000E02EC05D00001800000000366E0100000000000000000000000000000000000000000000000000000000000000000012000000000000000000000000000074
:401280000000000000000000000000000000000000000000000000000000000000000000000000000000000000000000000000002081FF1F0000000000000000000000006F
:4012C00000000000000000000000000000000000000000000000000000000000000000000000000000000000000000000000000000000000000000000000000000000000EE
:4013000000000000000000000000000000000000000000000000000000000000000000000000000000000000000000000000000000000000000000000000000000000000AD
:40134000000000000000000000000000000000000000000000000000000000000000000000000000000000000000000000000000000000000000000000000000000000006D
:40138000000000000000000000000000000000000000000000000000000000000000000000000000000000000000000000000000000000000000000000000000000000002D
:020000040003F7
:0200000480007A
:4000000001450040024F0040015200400201014003030140030501400207014003090140040A0140050B0140030D0140020F014002170140021901400B4001401341014091
:400040001842014005430140044401400F450140084601401147014006480140034C01407E0201100A4B7C40E208E604E20FE602EA08E208EA08EE08EA04EE08AF20B5027A
:40008000EA04B822BE11D804DF011D021F20E208EA08EE08E20FE602EA08E208E604EC10EE08EC10EE083101328035803608394081408580CCF0CE10E210E620014005400C
:4000C00032023380340435803B80820A840487C09D01A680AE08C0C0CCF0CE10E2F0E640EA1012803140360837803B483D40630285809140934899409B809D81A208A680A0
:40010000A780AF44C410CCB0CE70D640E210EA10EE10A780A901AF01EA20EE107C0182048710DE010240030107020A080B800F8183418743940196019710A604AE01C00B14
:40014000C20F45028501940196019710A604AE44D0010A010B100E080F8012801501950196019710A502A604A740AB40B401C20FC40CEC0827049F04AF80B704C820EE104F
:40018000AE80B502EC080000AAEAFFFC030000000CFFF300000000003400003C3C000000000000004000000000000000C0000000F40000FFFF00000000000000FDFD00003E
:4001C00000000000180003FBF800000004000000250018010000000000000000000000000000000000000000000000000000000000000000000000000000000000000000AF
:4002000000000000000000000000000000000000000000000000000000000000000000000000000000000000000000000000000000000000000000000000000000000000BE
:40024000000000000000000000000000000000000000000000000000000000000000000000000000000000000000000000000000000000000000000000000000000000007E
:40028000000000000000000000000000000000000000000000000000000000000000000000000000000000000000000000000000000000000000000000000000000000003E
:4002C00000000000000000000000000000000000000000000000000000000000000000000000000000000000000000000000000000000000000000000000000000000000FE
:0200000490006A
:0400000000004005B7
:0200000490105A
:04000000BC90ACAF55
:0200000490303A
:02000000A560F9
:0200000490402A
:4000000000000000000000000000000000000000000000000000000000000000000000000000000000000000000000000000000000000000000000000000000000000000C0
:400040000000000000000000000000000000000000000000000000000000000000000000000000000000000000000000000000000000000000000000000000000000000080
:400080000000000000000000000000000000000000000000000000000000000000000000000000000000000000000000000000000000000000000000000000000000000040
:4000C0000000000000000000000000000000000000000000000000000000000000000000000000000000000000000000000000000000000000000000000000000000000000
:0200000490501A
:0C00000000012E16106900012E1DB5C96C
:00000001FF