:400000000080002011000000050400000504000008B5044B1A6803F53F5302331A6000F0F9F900BFFA46004010B5054C237833B9044B13B10448AFF300800123237010BD73
:400040008881FF1F00000000600E0000084B10B51BB108480849AFF300800848036803B910BD074B002BFBD0BDE81040184700BF00000000600E00008C81FF1F0881FF1F65
:400080000000000008B500F0A7FB60B1074B1B781BB90122054B1A7002E00222034B1A70962000F077FC00F01FFE08BDA481FF1F08B500F0A1FB48B100F014FCB0FA80F0C2
:4000C000400900F003FC962000F064FC00F0A4FD08BD00BF08B500F097FB48B100F016FCB0FA80F0400900F005FC962000F052FC00F060FD08BD00BF08B500F097FB48B122
:4001000000F018FCB0FA80F0400900F007FC962000F040FC00F088FC08BD00BF08B500F063FB48B100F01AFCB0FA80F0400900F009FC962000F02EFC00F0AAFC08BD00BF3F
:4001400008B500F03DFC48B100F01CFCB0FA80F0400900F00BFC962000F01CFC00F0CCFC08BD00BF08B500F00FFB48B100F082FBB0FA80F0400900F071FB962000F00AFCBC
:4001800000F0EAFC08BD00BF38B510F0F00F04D0FF22134B1A70012038BD044600F00105284600F0DDFD284600F06CFBC4F34005284600F0E1FD284600F070FBC4F380058C
:4001C000284600F0E5FD284600F074FBC4F3C004204600F0E9FD204600F078FB002038BDA481FF1F08B5604B1878FFF7CDFF012000F0D2FA012000F031FB012000F00AFB30
:40020000012000F0DDFA012000F03CFB012000F045FB012000F04EFB012000F057FB012000F068FB012000F079FB012000F08AFB012000F09BFB4FF4FA7000F0ABFB0020E7
:4002400000F0AAFA002000F009FB002000F0E2FA002000F0B5FA002000F014FB002000F01DFB002000F026FB002000F02FFB002000F040FB002000F051FB002000F062FB65
:40028000002000F073FB394800F054FD384800F01DFD384800F0E6FC374800F0AFFC374800F07AFC364800F0B1FB364800F0E2FB354800F013FC354800F040FC032000F086
:4002C00021FD032000F0EAFC032000F0B3FC032000F07CFC032000F04BFC032000F07EFB032000F0AFFB032000F0E0FB032000F011FC62B6264B1B78032B1ED801A252F8BC
:4003000023F000BF150300001D03000033030000F5020000012000F03FFAEBE7002000F03BFA114B1878FFF72FFF0322184B1A70E0E70022164B1A70DCE7002000F010FD4F
:40034000002000F019FD002000F022FD002000F02BFD00F02DFAB0FA80F0400900F01CFA642000F017FBF4E70C81FF1F9503000085000000CD030000B1000000D5000000F1
:40038000F90000001D0100004101000065010000A481FF1F08B500F059FA88B10A4B1B78072B03D85B00084A137002E00122064B1A70054B1878FFF7E7FE962000F0EAFAB8
:4003C00000F0C6FC08BD00BF0C81FF1F08B500F035FA88B10A4B1B78012B03D95B08084A137002E00822064B1A70054B1878FFF7CBFE962000F0CEFA00F042FC08BD00BF39
:400400000C81FF1F08B500F0EBFC03680C2B00D1FEE7FEE708B5104E104D16E029686B68AC68002204E051F8040B43F8040B0432A242F8D1E868002203E0002143F8041BFF
:4004400004328242F9D11035013E002EE6D100F0CDFCFFF7C7FEFEE701000000C80E000008B5124A124B1A60124A136843F40073136000230AE0032B03D80F4A52F823104F
:4004800000E00E490E4A42F8231001332F2BF2D90C4B1A780C4B1A70094A0C4B1A6000F0D3F800220A4B1A6008BD00BF0004FA050CED00E014ED00E0000000000504000003
:4004C0000080FF1FBC7600400481FF1F08ED00E00081FF1FFEE700BFF0B40022174611E050F82760F3B226F0FF0608E001EB420511F812406D78A5550132013BDBB2002B12
:40050000F4D10137182FEBD9F0BC70470A4B1B78DBB203F00701094A11701B09013213700422074B1A704023064A1370583213704422054B1A707047CF0100496E580040D7
:400540003D510040005B00407658004008B50A46002100F07CFC08BD08B500F06DFC08BD38B500242C4B1C80502202331A702B482B490422FFF7F0FF06222A4B1A705222EC
:40058000A3F580731A70284B1B78DBB2274A13704FF4E162264B1A8041F25122023B1A8019250CE0234B1B7803F0010343EA440404F003044FF4F07000F002FC013D0DB172
:4005C000032CEFD115B90320FFF784FF1A4A4FF48073138007231370002318490B704820023108701370053213700222144B1A7004220A331A70134A137843F001031370DD
:40060000013A137843F001031370013A137843F08003137038BD00BF8040004000410040B4010048004300400F010049A146004022420040254200400440004006400040B1
:4006400001400040A243004038B572B6394A137843F00403137000240AE0374963001A1952000A44D068118AFFF770FF0134E4B2052CF2D900240BE02F49A3001A19520082
:400680000A44106B516B0822FFF766FF0134E4B2002CF1D04FF090402849FFF71DFF0A24274B1C70274A137843F0020313701032137843F002031370234D2B7843F04003F2
:4006C0002B70A2F58632513A137843F0100313701E481F490822FFF73FFF1E481E492246FFF73AFF1D481E492246FFF735FF1D481D492246FFF730FF1C481D490822FFF701
:400700002BFF1C481C492246FFF726FF1B4A137843F0080313701A4C61232370FFF720FF81232370FFF7F2FE164829460E22FFF713FF38BDE8460040640E0000640000485D
:400740008358004003500140A04300400251004074010048C05100407C010048F051004088010048105100409401004822510040A001004830510040A8010048224300407E
:4007800000480040B0430040024B1878C0F30010704700BF21510040044A137803F0DF03400100F0200018431070704730510040024B1878C0F34010704700BF315100404C
:4007C000044A137803F0EF03000100F0100018431070704710510040024B1878C0F3C000704700BF21510040024B1878C0F38000704700BF21510040024B1878C0F3800047
:40080000704700BF01510040014B1878C009704721510040044A137803F0FB03800000F00400184310707047C0510040024B1878C0F38010704700BF21510040024B18785C
:4008400000F00100704700BF21510040024B1878C0F3C000704700BF01510040044A137803F0F703C00000F00800184310707047C0510040024B1878C0F3C000704700BFE0
:40088000C1510040044A137803F0F703C00000F0080018431070704730510040044A137803F0BF03800100F0400018431070704710510040044A137803F07F03C001C0B222
:4008C00003431370704700BF10510040044A137803F0DF03400100F0200018431070704710510040024B1878C0F34010704700BF11510040044A137803F0DF03400100F00F
:400900002000184310707047C0510040024B1878C0F34010704700BFC1510040044A137803F0FB03800000F0040018431070704710510040024B1878C0F38000704700BF15
:4009400011510040044A137803F0EF03000100F01000184310707047C0510040024B1878C0F30010704700BFC1510040044A137803F0EF03000100F010001843107070477A
:4009800030510040024B1878C0F30010704700BF3151004010B5044605E0084B186800F00FFAA4F50044B4F5004FF6D8034B586800FB04F000F004FA10BD00BF1081FF1F15
:4009C000024B1878C0F34010704700BF21510040014B1B68D867704708ED00E04001C0B2014B1870704700BF0FE400E04FF40042014B1A60704700BF00E100E04FF400427E
:400A0000014B1A60704700BF80E100E010B50446FFF7F4FF2046FFF7DBFF0720FFF7DEFFFFF7E4FF10BD00BF4FF40042014B1A60704700BF80E200E0014B1B689866704725
:400A400008ED00E04001C0B2014B1870704700BF0AE400E04FF48062014B1A60704700BF00E100E04FF48062014B1A60704700BF80E100E010B50446FFF7F4FF2046FFF7BE
:400A8000DBFF0720FFF7DEFFFFF7E4FF10BD00BF4FF48062014B1A60704700BF80E200E0014B1B68D866704708ED00E04001C0B2014B1870704700BF0BE400E04FF4006250
:400AC000014B1A60704700BF00E100E04FF40062014B1A60704700BF80E100E010B50446FFF7F4FF2046FFF7DBFF0720FFF7DEFFFFF7E4FF10BD00BF4FF40062014B1A60DF
:400B0000704700BF80E200E0014B1B68D865704708ED00E04001C0B2014B1870704700BF07E400E08022014B1A60704700E100E08022014B1A60704780E100E010B504464E
:400B4000FFF7F6FF2046FFF7DFFF0720FFF7E2FFFFF7E8FF10BD00BF8022014B1A60704780E200E0014B1B689865704708ED00E04001C0B2014B1870704700BF06E400E069
:400B80004022014B1A60704700E100E04022014B1A60704780E100E010B50446FFF7F6FF2046FFF7DFFF0720FFF7E2FFFFF7E8FF10BD00BF4022014B1A60704780E200E0B9
:400BC000014B1B689867704708ED00E04001C0B2014B1870704700BF0EE400E04FF48042014B1A60704700BF00E100E04FF48042014B1A60704700BF80E100E010B5044639
:400C0000FFF7F4FF2046FFF7DBFF0720FFF7DEFFFFF7E4FF10BD00BF4FF48042014B1A60704700BF80E200E0014B1B681866704708ED00E04001C0B2014B1870704700BFDD
:400C400008E400E04FF48072014B1A60704700BF00E100E04FF48072014B1A60704700BF80E100E010B50446FFF7F4FF2046FFF7DBFF0720FFF7DEFFFFF7E4FF10BD00BF37
:400C80004FF48072014B1A60704700BF80E200E0014B1B685867704708ED00E04001C0B2014B1870704700BF0DE400E04FF40052014B1A60704700BF00E100E04FF4005272
:400CC000014B1A60704700BF80E100E010B50446FFF7F4FF2046FFF7DBFF0720FFF7DEFFFFF7E4FF10BD00BF4FF40052014B1A60704700BF80E200E0014B1B685866704793
:400D000008ED00E04001C0B2014B1870704700BF09E400E04FF40072014B1A60704700BF00E100E04FF40072014B1A60704700BF80E100E010B50446FFF7F4FF2046FFF7DC
:400D4000DBFF0720FFF7DEFFFFF7E4FF10BD00BF4FF40072014B1A60704700BF80E200E0044A137803F07F03C001C0B203431370704700BF00510040044A137803F0BF0328
:400D8000800100F0400018431070704700510040044A137803F0DF03400100F0200018431070704700510040044A137803F0EF03000100F01000184310707047005100405B
:400DC0000230800803D000BF01380046FCD17047EFF3108072B6704780F31088704700BF014B1868704700BF8081FF1F0E4B70B51E460E4C0025E41AA410A54204D056F855
:400E0000253098470135F8E700F04CF8084B094C1E46E41AA4100025A54204D056F8253098470135F8E770BDB00E0000B00E0000B00E0000B80E000010B5431E0A4491428C
:400E400004D011F8014B03F8014FF8E710BD03460244934202D003F8011BFAE77047000000000000035B004024430040400000004051004030000000014000100014014041
:400E8000000800400140000A004C01400002005001402000005101406C0100480800000043000000F8B500BFF8BC08BC9E4670474D00000061040000F8B500BFF8BC08BCB8
:400EC0009E46704729000000D80E00000881FF1F800000002000000000000000010000000000E02EC05D00001800000000366E010000000000000000000000000000000018
:400F000000000000000000000000000000000000A00E0000000000000000000000000000000000000000000000000000000000000000000000000000000000000000000003
:400F4000000000000000000000000000000000002081FF1F0000000000000000000000000000000000000000000000000000000000000000000000000000000000000000B2
:400F80000000000000000000000000000000000000000000000000000000000000000000000000000000000000000000000000000000000000000000000000000000000031
:400FC00000000000000000000000000000000000000000000000000000000000000000000000000000000000000000000000000000000000000000000000000000000000F1
:4010000000000000000000000000000000000000000000000000000000000000000000000000000000000000000000000000000000000000000000000000000000000000B0
:401040000000000000000000000000000000000000000000000000000000000000000000000000000000000000000000000000000000000000000000000000000000000070
:020000040003F7
:0200000480007A
:40000000014500400152004003030140040501400107014002090140040A0140050B0140030D0140011501400117014001190140011B014007400140144101401442014073
:4000400004430140024401400F4501400C4601400E4701400448014001490140024C0140024D01407E027C40E20EE606EA05E204E602EA04EE04E202B502E202B802BE01CF
:40008000D804DF011D02E204E602EA04EE04E20EE606EA05EC10EA08EA08EC1030103202340437103B80CCF0CE100140048030203202368037083880828884148602978091
:4000C0009C14AA02AB10C0C0CCF0CE10E270E660EAA032103480360839403E2082208480914092209780A208A420AA10AB08CCB0CE30E220E640EA20EE2084209780A4204E
:40010000E2407C01DE0100400310070809220F48830C85028601871094019701A740AB41C00BC20F4508812087409340940196019721A120A740A840AB10D0010B210E01CA
:400140000F8012401701870196019721A508A740B401C20FC40CEC082510AF40C820EA10B510A508AE40B508EC080000AAFAFFFC000000000CFCF000000000003400003CB3
:400180003C000000000000004000000000000000C0000000F40000FFFF00000000000000FDFD0000000000001800033B380000000400000025001801000000000000000047
:4001C00000000000000000000000000000000000000000000000000000000000000000000000000000000000000000000000000000000000000000000000000000000000FF
:4002000000000000000000000000000000000000000000000000000000000000000000000000000000000000000000000000000000000000000000000000000000000000BE
:40024000000000000000000000000000000000000000000000000000000000000000000000000000000000000000000000000000000000000000000000000000000000007E
:40028000000000000000000000000000000000000000000000000000000000000000000000000000000000000000000000000000000000000000000000000000000000003E
:0200000490006A
:0400000000004005B7
:0200000490105A
:04000000BC90ACAF55
:0200000490303A
:020000000C7280
:0200000490402A
:4000000000000000000000000000000000000000000000000000000000000000000000000000000000000000000000000000000000000000000000000000000000000000C0
:400040000000000000000000000000000000000000000000000000000000000000000000000000000000000000000000000000000000000000000000000000000000000080
:400080000000000000000000000000000000000000000000000000000000000000000000000000000000000000000000000000000000000000000000000000000000000040
:4000C0000000000000000000000000000000000000000000000000000000000000000000000000000000000000000000000000000000000000000000000000000000000000
:0200000490501A
:0C00000000012E16106900012E1C1CDBF4
:00000001FF