:4000000000800020110000007D0600007D06000080B500AF024A034B1B68136000F032FBBC760040FA4600400800022300000876080003230000107608000423000028765A
:4000400008000523000030760500062300002070050007230000307005000823000060700500FE230000707050000A22000020511000FE220000F051FF0F0C22000000007D
:4000800001000D220000FF0F80000E220000001680010F2200000018000210220000001A0009112200000040000112220000004D1000FE22000000500600142300006052B7
:4000C0002000FE2300007065800016230000001480001723000080148000182300008016100019230000105080001A230000004C80001B230000804C80001C23000000156B
:4001000080001D230000801580001E230000801980001F2300000017800020230000801780002123000000498000FE230000804901000000010000000100000000480140DA
:4001400001000000004800400100000000200140010000000020004010B5054C237833B9044B13B10448AFF300800123237010BD2081FF1F000000009C0E0000084B10B510
:400180001BB108480849AFF300800848036803B910BD074B002BFBD0BDE81040184700BF000000009C0E00002481FF1F0881FF1F0000000080B500AF00F044F8002000F0DD
:4001C000C3F94FF4FA7000F003FE4FF4784000F0BBF94FF4FA7000F0FBFD4FF4FC6000F0B3F94FF4FA7000F0F3FD1F2000F0ACF94FF4FA7000F0ECFD002000F0A5F94FF45E
:40020000FA7000F0E5FDD9E780B500AF00F030FD80BD00BF80B582B000AF0346FB7100BF00F042FD034603F01103002BF8D0FB79184600F059FD052000F0ECFD0837BD4671
:4002400080BD00BF80B500AFFFF7DEFF012000F08FFC052000F0BCFD002000F089FC142000F0B6FD012000F083FC962000F0B0FDEF2000F0FDF8032000F00AF9802000F078
:4002800007F9022000F004F9CF2000F0F1F8002000F0FEF8C12000F0FBF8302000F0F8F8ED2000F0E5F8642000F0F2F8032000F0EFF8122000F0ECF8812000F0E9F8E820BB
:4002C00000F0D6F8852000F0E3F8002000F0E0F8782000F0DDF8CB2000F0CAF8392000F0D7F82C2000F0D4F8002000F0D1F8342000F0CEF8022000F0CBF8F72000F0B8F85F
:40030000202000F0C5F8EA2000F0B2F8002000F0BFF8002000F0BCF8C02000F0A9F8232000F0B6F8C12000F0A3F8102000F0B0F8C52000F09DF83E2000F0AAF8282000F089
:40034000A7F8C72000F094F8862000F0A1F8362000F08EF8482000F09BF83A2000F088F8552000F095F8B12000F082F8002000F08FF8182000F08CF8B62000F079F80820FC
:4003800000F086F8822000F083F8272000F080F8F22000F06DF8002000F07AF8262000F067F8012000F074F8E02000F061F80F2000F06EF8312000F06BF82B2000F068F80B
:4003C0000C2000F065F80E2000F062F8082000F05FF84E2000F05CF8F12000F059F8372000F056F8072000F053F8102000F050F8032000F04DF80E2000F04AF8092000F069
:4004000047F8002000F044F8E12000F031F8002000F03EF80E2000F03BF8142000F038F8032000F035F8112000F032F8072000F02FF8312000F02CF8C12000F029F84820A4
:4004400000F026F8082000F023F80F2000F020F80C2000F01DF8312000F01AF8362000F017F80F2000F014F8012000F085FC80BD80B582B000AF0346FB71002000F092FBC9
:40048000FB791846FFF7C6FE0837BD4680BD00BF80B582B000AF0346FB71012000F082FBFB791846FFF7B6FE0837BD4680BD00BF90B583B000AF0446084611461A46234680
:4004C000FB800346BB800B467B8013463B802A20FFF7CEFFFB881B0A9BB2DBB21846FFF7D7FFFB88DBB21846FFF7D2FF7B881B0A9BB2DBB21846FFF7CBFF7B88DBB21846A1
:40050000FFF7C6FF2B20FFF7B3FFBB881B0A9BB2DBB21846FFF7BCFFBB88DBB21846FFF7B7FF3B881B0A9BB2DBB21846FFF7B0FF3B88DBB21846FFF7ABFF2C20FFF798FFF6
:400540000C37BD4690BD00BF90B585B002AF0346FB80094B1B889AB2084B1B889BB212B21CB2FB88009300200021234600F008F80C37BD4690BD00BF0C81FF1F0E81FF1FC8
:4005800090B585B000AF0446084611461A462346FB800346BB800B467B8013463B80B7F90630344A1288934205DAB7F90430324A1288934200DB59E0B7F90620B7F90230AE
:4005C0001344013B2B4A1288934205DB294B1A88FB88D31A9BB27B80B7F90420B7F900301344013B244A1288934205DB224B1A88BB88D31A9BB23B80F888B988FA887B8845
:4006000013449BB2013B9CB2BA883B8813449BB2013B9BB22246FFF74BFF3B8C1B0A9BB2FB733B8CBB73012000F0BCFA3B88BB8018E07B88FB800CE0FB7B1846FFF7EAFD3E
:40064000BB7B1846FFF7E6FDFB889BB2013B9BB2FB80B7F90630002BEEDCBB889BB2013B9BB2BB80B7F90430002BE2DC1437BD4690BD00BF0C81FF1F0E81FF1F80B400AFA8
:40068000FEE700BF80B586B000AF224B7B61224B3B61204B7B6135E03B691B68FB603B695B68BB603B699B683B6000237B600CE0FB681A68BB681A60BB680433BB60FB6844
:4006C0000433FB607B6804337B607A683B689A42EED13B69DB683B6000237B6008E0BB6800221A60BB680433BB607B6804337B607A683B689A42F2D13B6910333B617B6937
:40070000013B7B617B69002BC6D100F095FBFFF751FDFEE701000000480F000080B582B000AF174B174A1A60174A174B1B6843F40073136000237B600FE07B68032B04D86A
:40074000124A7B6852F8233000E0114B11497A6841F822307B6801337B607B682F2BECD90D4B1B78DAB20D4B1A700D4B094A1A6000F088F90B4B00221A600837BD4680BD46
:400780000CED00E00004FA0514ED00E0000000007D0600000080FF1FBC7600400481FF1F08ED00E00081FF1F80B584B000AFF860B9607A60F868B9687A6800F063FB103777
:4007C000BD4680BD80B483B000AF0346FB71FEE780B483B000AF434B00221A60424B10221A70424B01221A70414B00221A70414B4FF484721A80404B01221A703F4B0322C8
:400800001A703F4B3F4A92B21A803F4B47F608021A803E4B00221A803D4B4FF480421A803C4B09221A703C4B0B221A703B4B13221A703B4B15221A70BFF35F8F394B012219
:400840001A70BFF35F8F00BF2A4B1B889BB2002BFAD100237B600DE07B68DA00324B13441946324A7B6852F823309BB20B807B6801337B607B68202BEED9BFF35F8F294B8A
:4008800001221A70BFF35F8F00BF294B1B78DBB203F00103002BF8D100BF264B1B78DBB203F00103002BF8D100BF234B1B78DBB203F00103002BF8D100BF204B1B78DBB2F0
:4008C00003F00103002BF8D100BF1D4B1B78DBB203F00103002BF8D10C37BD465DF8047B704700BF4081FF1F00760040107000401970004000780040027800400378004000
:40090000047800402800000006780040047600400676004029700040397000406970004079700040147000400C780040A00E000018700040287000403870004068700040C5
:400940007870004080B582B000AF2F4B05221A802E4B19221A702E4B02221A704FF0402308221A702B4B03221A702B4B2B4A1278D2B21A702A4B08221A802A4B41F2512247
:400980001A800023FB7019237B6013E0FB785B00DAB2254B1B78DBB203F00103DBB21343DBB203F00303FB70782000F001FA7B68013B7B607B68002B02D0FB78032BE5D19C
:4009C0007B68002B02D10320FFF7FCFE174B4FF480721A80154B07221A70154B00221A70144B48221A70114B00221A70124B02221A70124A114B1B78DBB243F00103DBB2B1
:400A000013700837BD4680BD80400040824000400043004000420040A14600400801004922420040204200402542004004400040064000400840004001400040A24300400F
:400A400080B483B000AF0B4B1B78FB710A4AFB7903F00703DBB21370084AFB791B09DBB21370074B44221A700C37BD465DF8047B704700BFCF0100496E5800406F58004044
:400A80007658004080B500AF72B62A4B61221A70FFF758FF274B81221A70274A264B1B78DBB243F00403DBB21370FFF791FE234A224B1B78DBB243F00203DBB21370204A31
:400AC0001F4B1B78DBB243F00203DBB213701D4A1C4B1B78DBB243F04003DBB213701A4A194B1B78DBB243F01003DBB21370174817490822FFF758FE164817490822FFF75F
:400B000053FE164816490822FFF74EFE154A154B1B78DBB243F00803DBB21370124B01221A70FFF78DFF114806490E22FFF73CFE80BD00BF00480040E846004003500140F4
:400B400013500140A0430040C24300400251004038060048C25100404006004812510040480600482243004004000840B043004080B485B000AF0346FB71094B1B78DBB2D1
:400B800003F07F03FB730649FB79DB01DAB2FB7B1343DBB20B701437BD465DF8047B70471051004080B485B000AF0346FB710B4B1B78DBB223F04003FB730849FB799B0171
:400BC000DBB203F04003DAB2FB7B1343DBB20B701437BD465DF8047B704700BF0051004080B500AF074B0F221A7000F097F800F05BF800F069F8044B04221A70034B202216
:400C00001A7080BD87650040846500408565004080B582B000AF00F0D3F80346FB71114A104B1B78DBB243F02003DBB213700E4A0D4B1B78DBB243F01003DBB213700B4A31
:400C40000A4B1B78DBB243F01003DBB21370FB79184600F0B9F800F01BF800F01FF80837BD4680BD97650040946500409565004080B500AF054B1B78002B04D1FFF7B0FF92
:400C8000024B01221A70FFF7C3FF80BD4881FF1F80B400AFBD465DF8047B704780B400AFBD465DF8047B704780B483B000AF054B1B78FB71FB7918460C37BD465DF8047B2B
:400CC000704700BF6465004080B483B000AF054B1B78FB71FB7918460C37BD465DF8047B704700BF6565004080B483B000AF0346FB7100BF074B1B78DBB203F00403002B83
:400D0000F8D0054AFB7913700C37BD465DF8047B704700BF646500404765004080B582B000AF01E0114B1B78114B1B78DBB203F02003002BF6D100F043F80346FB710D4A7F
:400D40000C4B1B78DBB243F00103DBB21370094A084B1B78DBB223F00103DBB21370FB79184600F031F80837BD4680BD57650040656500409765004080B485B000AF0346BB
:400D8000FB71094B1B78DBB203F07F03FB730649FB79DB01DAB2FB7B1343DBB20B701437BD465DF8047B704700510040000000000230800803D000BF01380046FCD17047B8
:400DC000EFF3108072B6704780F31088704700BF80B582B000AF786008E00C4B1B681846FFF7E6FF7B68A3F500437B607B68B3F5004FF2D8064B1B687A6802FB03F31846F4
:400E0000FFF7D6FF0837BD4680BD00BF1C81FF1F1481FF1F80B582B000AF0346FB80FB88044A127802FB03F31846FFF7C1FF0837BD4680BD1881FF1F0E4B70B51E460E4C8D
:400E40000025E41AA410A54204D056F8253098470135F8E700F066F8084B094C1E46E41AA4100025A54204D056F8253098470135F8E770BD300F0000300F0000300F0000DC
:400E8000380F000010B5431E0A44914204D011F8014B03F8014FF8E710BD0000000000005001000048010000400100003801000030010000300100003001000030010000AC
:400EC0004081FF1F4081FF1F4081FF1F4081FF1F4081FF1F4081FF1F4081FF1F4081FF1F4081FF1F4081FF1F0000004888010048080000488800004808010048A8010048C1
:400F0000B801004838020048B802004838030048B803004838040048B804004838050048B8050048F8B500BFF8BC08BC9E4670477D0100001D070000F8B500BFF8BC08BC8F
:400F40009E46704759010000580F00000881FF1F1800000030000000000000004001F00000366E01C05D0000180000000000E02E000000000000000000000000000000000D
:400F80000000000000000000000000000000000000000000000000000000000000000000000000000000000000000000000000000000000000000000000000000000000031
:400FC00000000000000000000000000000000000000000000000000000000000000000000000000000000000000000000000000000000000000000000000000000000000F1
:4010000000000000000000000000000000000000000000000000000000000000000000000000000000000000000000000000000000000000000000000000000000000000B0
:401040000000000000000000000000000000000000000000000000000000000000000000000000000000000000000000000000000000000000000000000000000000000070
:020000040003F7
:0200000480007A
:400000000100000000000000008D0000028D0D00008D000009420608030D0C80006200140002000D00110022000000800040000005000A00008D0000007000800F0F007082
:40004000000020A2000000040000000000000000000000000000000000000000090000000404000400000001000000000000000000000000000000000000000000000000A4
:4000800000000000000000000019000200000000000000000000002000000000000A0035000700000002003C0000000000000000000000000000000000000000000F003042
:4000C0000020000000000000000000000000000000000000000000000000000040000000000400040000000100000000000000000000000000000000000000000000000097
:400100000000000000000000569A0900049800020102009804FC8003079838020A2110D8003800C084130064840000008402000080000400609A000008007F0F02E0801398
:4001400008000028000051003405100002DEF0BC3BFFFFFF2200F008040000000000022404040404000000010000C00040011011C001001140014001000000000000000026
:40018000000000000000000000000000000000000000000000000000000000000000000F0000000000000000010000000000000000000100000000004000000000000000EE
:4001C00000000000000000000000000000000000000000000000000000000000000000000000000000000000000000000000000000000000000000000000000000000000FF
:400200000000000000000000000000000000000000040000000000000000000000000000000000000000000000000000000000000000000000000000400400000000000076
:40024000000000000000000000000000000000000000000000000000000000000000000000000000000000000000000000000000000000000000000002000000000000007C
:4002800000000000000000000000000000000200000000000000000000000000000000000000000000000000000000000000000000000000000000004400000000000000F8
:4002C00000008000000000000000080000000000040000000000000040009010004020001041040000000000000850010000A8004015000002800000000000000000000005
:400300000000000000000000000000000000000010044100000000000000000200001012000000000000000000000000000000000000000000000000000000000000000044
:4003400000400000000020000015C1024400000000451401000000000108080100008000000000000000000000000401000000000000000000000000050008000200000001
:4003800000000B007F009F000000000000000F007800000000000000000010000000200000000000000000000000000000000000000000000000000000000000000000005D
:4003C00000000000000000000000000000000000000000000000000000000000000000000000000000000000000000000000000000000000000000000000000000000000FD
:4004000000000000000000000000000000000000000000000000000000000000010004000000000000000000000000000000000000000000000000001840800000000000DF
:400440000008800100000000280141000000000011004900000000000A0858000000000000004400000000000008500100000000401400010000000041080020000000006A
:40048000010500020000000000001500000000000000000000000000040000000000000028550001000000000040000100000000000000000000000010000020000000002C
:4004C00000000000000000000000000000000000000000000000000000000000000000000000000000000000000000000000000000000000000000000F000D000F000000D1
:4005000000000A000F000F000F0008000000000004000000000000000000000001000400000000000000000000000000000000000000000000000000000000000000000073
:40054000000000000000000000000000000000000000000000000000000000000000000000000000000000000000000000000000000000000000000000000000000000007B
:40058000000000000000000000000000000000000000000000000000000000000000000000000000000000000400000008000000000000000000000000000000000000002F
:4005C00008000000040000000000000000000000000000000000000000000000000000000000000000000000000000000000000000000000000000000000000000000000EF
:40060000000000000000000000000000000000000000000080002000000000000000000000000000000000000000000000000000000000000000000000C0C000000000009A
:40064000000303000300000004C0C00040000000000000000000000000000000000000000000000000000000000000000000000000000000000000000000000000000000AD
:40068000000000000000000000000000000000000000000000000000000000000000000000000000000000000000000000000000000000000000000000000000000000003A
:4006C00000000000000000000000000000000000000000000000000000000000000000000000000000000000000000000000000000000000000000000000000000000000FA
:4007000000000000000000000000000000000000000000000000000000000000000000000000000000000000000000000000000000000000000000000000000000000000B9
:400740000000000000000000000000000000000000000000000000000000000000000000000000000000000000000000000000000000000000000000000000000000000079
:0200000490006A
:0400000000004004B8
:0200000490105A
:04000000BC90ACAF55
:0200000490303A
:0200000007985F
:0200000490402A
:4000000000000000000000000000000000000000000000000000000000000000000000000000000000000000000000000000000000000000000000000000000000000000C0
:400040000000000000000000000000000000000000000000000000000000000000000000000000000000000000000000000000000000000000000000000000000000000080
:400080000000000000000000000000000000000000000000000000000000000000000000000000000000000000000000000000000000000000000000000000000000000040
:4000C0000000000000000000000000000000000000000000000000000000000000000000000000000000000000000000000000000000000000000000000000000000000000
:0200000490501A
:0C00000000012E16106900012E1C1801D2
:00000001FF